:10000000FEEF01F05744545F54494D454F5554009D
:100010004D434C525F46524F4D5F534C4545500047
:100020004D434C525F46524F4D5F52554E004E4F1E
:10003000524D414C5F504F5745525F555000425210
:100040004F574E4F55545F52455354415254000040
:100050005744545F46524F4D5F534C454550000046
:1000600052455345545F494E535452554354494F9A
:100070004E00756E6B6E6F776E2100000D0A0000EA
:10008000500ED36E9B9C9B9EC050C00B0109C06E4E
:10009000C08EC280C150F00BC16E2F0E0F01386FA1
:1000A000000E3C6F020E396F000E3A6F3B6FC08E30
:1000B000416B426BC66A01010D6B0E6B0F6B106BCF
:1000C0000001F86BF76BFA6BF96BFC6BFB6BFE6B6B
:1000D000FD6BF66BFF6B020E01010C6F000132EF3E
:1000E00002F0290E0B6E410E0D6E260E0F6E940E51
:1000F0000E6E116A140E106E030E136E890E126EC0
:10010000030E156E670E146E030E176E400E166EFC
:10011000030E196E120E186E020E1B6EE00E1A6E92
:10012000020E1D6EAB0E1C6E020E1F6E720E1E6E48
:10013000020E216E390E206E020E236E226A010E0F
:10014000256EC90E246E010E276E950E266E010EC9
:10015000296E650E286E010E2B6E390E2A6E010E69
:100160002D6E110E2C6E2F6AEE0E2E6E020E316E5B
:10017000306A010E336E8B0E326E010E356E7C0EC0
:10018000346E33EF02F00101186B176B1635006EF9
:100190000036FC0E0016C250830B0010C26E040025
:1001A000020E006E002EFED700D0196B19510F08F9
:1001B00009E3C282C2B2FED7C3501727C450182326
:1001C000192BF4D7080E17251A6F000E18211B6F74
:1001D0001B31036E1A31026E0332023203320232D5
:1001E000033202320F0E031602C001F003C002F008
:1001F00000011200010EEA6E170EE96EEF5011E0D9
:10020000010E016EBF0E006E0400002EFDD7012E00
:10021000F9D74A0E006E002EFED700000400EF2E24
:10022000EFD7120094968B9694948B8494988B8835
:10023000640E0101176F0001DDDF94968B96949494
:100240008B9494988B98010E01010C6F000178EF4C
:1002500002F00101166B3C0E616EF19E010E176FEC
:100260000001C8DF938481B404D0010E0101162778
:100270000001938681B604D0020E01011627000109
:10028000938881B804D0040E010116270001938AD7
:1002900081BA03D0080E01011627010116C101F031
:1002A000000179EF02F09EA8FED7AD6E1200929C7D
:1002B000899C929E898E0A0E0101176F00019ADFB8
:1002C00001011651020805E1020E0001ECDF04D025
:1002D0000101010E0001E7DF050EE5DF000EE3DF9F
:1002E000010EE1DF000EDFDF000EDDDF9C0EDBDF45
:1002F00001011651020805E1390E0001D4DF04D0D6
:1003000001010A0E0001CFDF0A0E0101176F000183
:1003100071DF929C898C929E899E1200929C899C8E
:10032000929E898E0A0E0101176F000163DF0101A1
:100330001651020805E1020E0001B5DF04D00101EB
:10034000010E0001B0DF050EAEDF000EACDF010EC6
:10035000AADFFF0EA8DF000EA6DFDD0EA4DF01017D
:100360001651020805E1C90E00019DDF04D001010C
:10037000FA0E000198DF0A0E0101176F00013ADF43
:10038000929C898C929E899E1200949A8B8A020E6E
:100390000101166F00018BDF010E0101166F0001D4
:1003A000BDDF949A8B9ADCEF02F094928B82010E5F
:1003B0000101166F00017BDF020E0101166F0001C3
:1003C000ADDF94928B92E0EF02F001010C5301E15A
:1003D00012D094968B8694948B9494988B88640E08
:1003E000176F000107DF94968B9694948B949498E2
:1003F0008B9801010C6B0001EBEF02F0F86AD09EC4
:10040000EA6AE96A500ED36E9B9C9B9E0A6AB89674
:10041000190EAF6EA60EAC6E900EAB6E7096190EE6
:10042000756EA60E726E900E716EC150F00BC16E9D
:10043000000E0F01386F3C6F396F3A6F3B6F776A70
:10044000786A796A046A056AD0500F0BD0A8000E4A
:10045000D080D082D088D886D8880101156F04005A
:1004600000010ED63ED6D0500F0BD0A8000ED08083
:10047000D082D088D886D8880101006F94908B8074
:100480000001FD2BD8B4FE2BFD51640808E1FE539A
:1004900006E1030E01010C6F0001FE6BFD6BC05005
:1004A000C00B0109C06EC08EC280C150F00BC16E7E
:1004B0002F0E0F01386F000E3C6F020E396F000EC9
:1004C0003A6F3B6FC08E040E0101166F00015BDEB8
:1004D00002C012F101C011F133500101125DD8A028
:1004E00071D004E11151325CD8B06CD000019AD6C1
:1004F000B0D601C001F1D89001010135036A120F95
:10050000E96E000E0320EA6EECCF03F0ED52EFCF60
:1005100013F103C014F1030E166F000134DE02C0A4
:1005200003F101C002F1020E0101166F00012BDE82
:1005300002C005F101C004F1010E0101166F0001B6
:1005400022DE02C007F101C006F10101166B0001B5
:100550001ADE02C009F101C008F10A0E0101166F8E
:10056000000111DE02C00BF101C00AF101010351CB
:10057000145D04E31FE11351025D1CE30551145D9A
:1005800004E318E11351045D15E30751145D04E31E
:1005900011E11351065D0EE30951145D04E30AE114
:1005A0001351085D07E30B51145D08E303E1135198
:1005B0000A5D04E20001E9D603D001010001F5D68D
:1005C0000AD001011251355C07E303E13450115D9B
:1005D00003E20001FAD6010194908B90C2900300CF
:0805E0000000000140D70300F8
:020000040030CA
:0E0000000028062B003F81000FC00FE00F40CC
:00000001FF
;PIC18F26K22
;CRC=4FE9  CREATED="13-Nov-15 10:56"
