:040000000FEF0AF004
:08000800046ED8CF05F0E0CF33
:1000100006F00001E9CF0CF0EACF07F0E1CF08F0DD
:10002000E2CF09F0D9CF0AF0DACF0BF0F3CF12F01C
:10003000F4CF13F0FACF14F0F5CF15F0F6CF16F099
:10004000F7CF17F000C00EF001C00FF002C010F0A3
:1000500003C011F0F2AA30EF00F0F2B477EF01F034
:10006000A3AA36EF00F0A4BAADEF01F00EC000F085
:100070000FC001F010C002F011C003F00CC0E9FF86
:1000800007C0EAFF078E08C0E1FF09C0E2FF0AC00F
:10009000D9FF0BC0DAFF12C0F3FF13C0F4FF14C086
:1000A000FAFF15C0F5FF16C0F6FF17C0F7FF0450A2
:1000B00006C0E0FF05C0D8FF1000F76ACA0FF66E51
:1000C000000EF7220900F550120000C1814001C066
:1000D000804101C0804100C1814001C0804100C118
:1000E000814000C1814001C0804101C0804100C108
:1000F000814000C1814001C0804100C1814001C0F8
:10010000804101C0804100C1814001C0804100C1E7
:10011000814000C1814001C0804100C1814001C0D7
:10012000804101C0804100C1814000C1814001C0C7
:10013000804101C0804100C1814001C0804100C1B7
:10014000814000C1814001C0804101C0804100C1A7
:10015000814000C1814001C0804100C1814001C097
:10016000804101C0804100C1814000C1814001C087
:10017000804101C0804100C1814001C0804100C177
:10018000814000C1814001C0804100C1814001C067
:10019000804101C0804100C1814001C0804100C157
:1001A000814000C1814001C0804101C0804100C147
:1001B000814000C1814001C0804100C1814001C037
:1001C000804101C0804100C18140F76ADA0FF66EBC
:1001D000010EF7220900F550120000C0C101C3034F
:1001E00002C2C60607C705C5C404CC0C0DCD0FCF8F
:1001F000CE0E0ACACB0BC90908C8D81819D91BDBFF
:10020000DA1A1EDEDF1FDD1D1CDC14D4D515D7174E
:1002100016D6D21213D311D1D010F03031F133F3FE
:10022000F23236F6F737F53534F43CFCFD3DFF3F4E
:100230003EFEFA3A3BFB39F9F83828E8E929EB2B7E
:100240002AEAEE2E2FEF2DEDEC2CE42425E527E70E
:10025000E62622E2E323E12120E0A06061A163A37E
:10026000A26266A6A767A56564A46CACAD6DAF6F0E
:100270006EAEAA6A6BAB69A9A86878B8B979BB7B7E
:100280007ABABE7E7FBF7DBDBC7CB47475B577B7CE
:10029000B67672B2B373B17170B0509091519353FE
:1002A000529296565797559594549C5C5D9D5F9FCE
:1002B0009E5E5A9A9B5B99595898884849894B8BFE
:1002C0008A4A4E8E8F4F8D4D4C8C4484854587478E
:1002D00046868242438341818040F29A02011F5345
:1002E00004E0D76AD66AF294F28A00011200F9514A
:1002F00002080AE1FA5308E1FB5306E1F8B104D021
:10030000020EFD5FF88101D0F891FB69FA69F96B83
:1003100002011F6B0001E1DFF29436EF00F0A4AAA6
:10032000FED771CF20F074CF01F020A202D07198D7
:1003300071881200FB5102011F19206F036A2051BE
:100340000001BBDE016EFA510118FB6F036A020166
:10035000205100013ADFFA6F1200E1DF01C01EF206
:10036000F8B126D0F95308E1FB69FA691EC2FCF026
:10037000F92BFD6BFF6B14D0F92D04D01EC2FEF0DB
:10038000F92B0ED0F95102080BE1FD3D02D0FE0E13
:10039000FD6FFDC0E9FF010EEA6E1EC2EFFFFD2BEF
:1003A0001EC21FF2C7DF010E02011F6F000195DFA1
:1003B000A49A36EF00F0232074735453656C656380
:1003C000746F722E632025730D0A000030392D4E94
:1003D0006F762D313500232073773D257520000081
:1003E0000D0A0000285433293D2530346C75200057
:1003F000285432293D2530346C7520002854312989
:100400003D2530346C752000285430293D2530348A
:100410006C75200028494E293D2530346C7520002C
:10042000285434293D2530346C7520003C2D206E35
:100430006F2066696C746572696E670D0A002854D6
:1004400033293D2530346C752000285432293D2550
:1004500030346C752000285431293D2530346C75BA
:100460002000285430293D2530346C75200028495F
:100470004E293D2530346C752000285434293D2503
:1004800030346C7520003C2D2066696C7465726593
:10049000640D0A00500ED36E9B9C9B9EC050C00BF7
:1004A0000709C06EC08EC280C150F00BC16E2F0E06
:1004B0000F01386F000E3C6F020E396F000E3A6F5D
:1004C0003B6FC08E416B426BC66A0001F46BF56BEB
:1004D000F66BF76BEA6BE96BEC6BEB6BEE6BED6B52
:1004E000F06BEF6BE86BF16B45EF0AF0020EEA6E12
:1004F000E96EEF5011E0010E016EBF0E006E0400B8
:10050000002EFDD7012EF9D74A0E006E002EFED721
:1005100000000400EF2EEFD712000201016B3C0E29
:10052000616EF19E010E026F0001E0DF938481B4E1
:1005300004D0010E020101270001938681B604D088
:10054000020E020101270001938881B804D0040E35
:10055000020101270001938A81BA03D0080E02012B
:100560000127020101C201F0000112000900F6CFCB
:1005700004F2F7CF05F2F5509EA8FED7AD6E04C287
:10058000F6FF05C2F7FF0201032F01D002D00001E0
:10059000EDD7000112000900F5520DE0F6CF01F28F
:1005A000F7CF02F2F5509EA8FED7AD6E01C2F6FF5E
:1005B00002C2F7FFF0D71200E82BE8510F0801E262
:1005C000E86B0201016B0151050836E30151040893
:1005D0000AE30135006E0036FC0E0016C250830B94
:1005E0000010C26E06D0280E016EC250830B01109F
:1005F000C26E0400020E006E002EFED700D0015124
:10060000200DF350036B026FD8900001E835036AA8
:1006100002010225016E035103220150280FE96EE9
:10062000000E0320EA6EC282C2B2FED7C3CFEFFF34
:10063000C4CFECFF012BC7D7000112000201055106
:10064000016A045D03E204C200F00CD0006A080EE7
:10065000066F043700360551005CD8B0006E0136D5
:10066000062FF7D700011200015002C204F2640EF7
:100670000201056F0001E2DF00C002F20150300EFE
:1006800008E1020103A30ED003B70CD003B9200E7A
:1006900004D00201039703990381012601509EA80B
:1006A000FED7AD6E02C204F20A0E056F0001C6DF6E
:1006B00000C002F20150300E08E1020103B70BD076
:1006C00003A109D003B9200E0001012601509EA804
:1006D000FED7AD6E0201300E022702519EA8FED752
:1006E000AD6E0001C8EF0AF002011551200DF35064
:1006F000036A280F016E000E032201C019F203C025
:100700001AF2176B166B186B18510F0811E3D8907B
:100710001835036A1925E96E1A510320EA6EECCFE9
:1007200003F0ED52EF50162703501723182BECD788
:10073000080E16251B6F000E17211C6F1C31036E4F
:100740001B31026E033202320332023203320232B2
:100750000F0E031602C001F003C002F000011200E8
:10076000EACF0BF2E9CF0AF202010439F009066F71
:100770000627E20F076F320F096F04510F0B07278F
:1007800007270927E90F086F0827082703390F0BE8
:100790000827092708370937091F093703510F0BA5
:1007A00009270637070E056F0A0E08070927FDE31C
:1007B00007070827FDE306070727FDE305070627C8
:1007C000FDE3020EEA6E050EE96E070E0A150A9D9C
:1007D000E926090EE95CD8B40A8DEF50006E08E1F5
:1007E0000ABD06D00AB90CD00AB702D0200E03D039
:1007F0000A870A99300E002600509EA8FED7AD6EDB
:10080000EE500AADE6D70001120002010A6B09C2E0
:1008100003F00851D8B4090708070B6F03C00CF2A6
:100820000B5302E10C5332E007C203F00651E96EAC
:1008300003C0EAFF0551036E0451042BD8B4052B05
:100840000D6F03C00EF2F2CF0FF2F29E0EC2AAFF9E
:100850000DC2A9FFA69CA69EA680A8500FBFF28E2F
:10086000EF6E07C203F00651E96E03C0EAFFEFCF57
:100870000BF20AC21CF20BC21DF21C511D19016EB3
:1008800001C00AF2062BD8B4072BC1D70AC201F067
:100890000001E8EF04F002011A6B19C203F01851CD
:1008A000D8B4190718071B6F03C01CF21B5302E1D1
:1008B0001C533EE017C203F01651E96E03C0EAFF75
:1008C000EFCF1BF21AC21CF21BC21DF21C511D19E4
:1008D000016E01C01AF21551036E1451142BD8B4D5
:1008E000152B1B6F03C01CF21751036E1651162BEC
:1008F000D8B4172BE96E03C0EAFFEFCF1DF21CC27C
:10090000AAFF1BC2A9FF1DC2A8FFA69CA69EA68483
:10091000F250006EF29E0F01550EA76EAA0EA76E42
:10092000A682A6B2FED7A6940050F2120201B5D755
:100930001AC201F00001ADEF04F00201136B210EA9
:10094000126F156B020E146F13C217F212C216F259
:10095000196B070E186F00019ED701C011F2AA6A29
:10096000A96A11C2A8FFA69CA69EA684F250006E9A
:10097000F29E0F01550EA76EAA0EA76EA682A6B212
:10098000FED7A6940050F21200011200960EF46FEA
:10099000F56FF66FF76F290E216E410E236E260E4E
:1009A000256E940E246E276A140E266EC6DF120082
:1009B0000201036B210E026F056B020E046F03C26E
:1009C00007F202C206F2096B070E086F00011DD77D
:1009D00001C001F2F2CF02F2F29EAA6AA96AA69CB5
:1009E000A69EA680A850020102BFF28E015D03E020
:1009F0000001CCDF02010001B9EF0CF0A4AA02D083
:100A00008EDCFCD79D8A1200F9DFC60ED56EC00EB3
:100A1000F212C5EF0CF0F8B104D0000E016E0AD04E
:100A200006D0FEAF04D000C1FFF0010EFD6FF891BB
:100A3000010E016E07EF09F0020109511F080CE1D8
:100A40000A514E0809E10B51200806E10C514E08ED
:100A500003E1010E016E2ED00A5102080FE2FF0AD7
:100A600003E10951E7080AE20C51030807E303E137
:100A70000B51F40803E3010E016E1CD00A51060865
:100A80000FE2FF0A03E10951CF080AE20C510908FD
:100A900007E303E10B51D10803E3010E016E0AD015
:100AA0000C5306E10B51340803E3010E016E02D032
:100AB000000E016E00013FEF09F0A4A8FED7736E8F
:100AC00066EF05F0020113510001F7D7196AF2BE73
:100AD000198EF29E13C21FF22DDC19BEF28E040095
:100AE000020E006E002EFED700001200FB69FA69AC
:100AF000F8919D9A0400090E006E002EFED700D0DA
:100B000011C213F2DFDF12C213F2DCDF1200ACA25B
:100B1000FED796EF05F0FBC012F2FAC011F212C236
:100B200013F2D0DF11C213F2CDDFF1D70400090EAA
:100B3000006E002EFED700D061DFFB69FA6912005B
:100B40000201085180090B6F09C20CF207C211F2B1
:100B5000126F0001CBDF0AC213F2B4DFDCDF120038
:100B6000EA6BE96BEC6BEB6BEE6BED6B8AEF07F00E
:100B700002011451060824E2FF0A03E11351CF08D1
:100B80001FE2145109081CE303E11351CF0818E3D5
:100B9000D00E135D156F070E1459166FF2CF17F2B2
:100BA000F29E16C2AAFF15C2A9FFA69CA69EA68009
:100BB000A85017BFF28E036A016E0350026EEDD18A
:100BC0001351006E1451036E035006E1120E005CC7
:100BD0000001D8B4CAD00201035006E1130E005C34
:100BE0000001D8B4D4D00201035006E1150E005C18
:100BF0000001D8B4D7D00201035006E1160E005C04
:100C00000001D8B4E1D00201035006E1180E005CE7
:100C10000001D8B4E5D00201035006E1190E005CD2
:100C20000001D8B4EFD00201035006E11B0E005CB6
:100C30000001D8B4F3D00201035006E11C0E005CA1
:100C40000001D8B4FDD00201035006E11E0E005C85
:100C50000001D8B401D10201035006E11F0E005C6F
:100C60000001D8B40BD10201035006E1210E005C53
:100C70000001D8B40FD10201035006E1220E005C3E
:100C80000001D8B419D10201035006E12A0E005C1C
:100C90000001D8B41DD10201035006E1300E005C02
:100CA0000001D8B421D10201035006E1310E005CED
:100CB0000001D8B420D10201035006E1320E005CDD
:100CC0000001D8B41FD10201035006E1330E005CCD
:100CD0000001D8B41ED10201030E035C06E1E80E48
:100CE000005C0001D8B41CD10201030E035C06E1D4
:100CF000E90E005C0001D8B41BD10201030E035CB5
:100D000006E1EA0E005C0001D8B419D10201030E1D
:100D1000035C06E1EB0E005C0001D8B417D10201C0
:100D2000030E035C06E1EC0E005C0001D8B415D1A3
:100D30000201030E035C06E1ED0E005C0001D8B475
:100D400013D10201030E035C06E1EE0E005C00010C
:100D5000D8B411D10201030E035C06E1EF0E005C72
:100D60000001D8B410D1020114D1D890E835036A3B
:100D7000280FE96E000E0320EA6EECCF03F0ED526F
:100D8000EFCF01F003C002F0020107D10001020120
:100D9000156B0001A9DC0150016E0250026E0201C8
:100DA000FCD00001D890E835036A480FE96E000EC8
:100DB0000320EA6EECCF03F0ED52EF50016E0350CA
:100DC000026E0201EAD00001010E0201156F00015E
:100DD0008BDC0150016E0250026E0201DED0000178
:100DE000D890E835036A680FE96E000E0320EA6EBA
:100DF000ECCF03F0ED52EF50016E0350026E020192
:100E0000CCD00001020E0201156F00016DDC015013
:100E1000016E0250026E0201C0D00001D890E83588
:100E2000036A880FE96E000E0320EA6EECCF03F030
:100E3000ED52EF50016E0350026E0201AED0000180
:100E4000030E0201156F00014FDC0150016E0250CC
:100E5000026E0201A2D00001D890E835036AA80F03
:100E6000E96E000E0320EA6EECCF03F0ED52EF5076
:100E7000016E0350026E020190D00001040E0201C7
:100E8000156F000131DC0150016E0250026E02014B
:100E900084D00001D890E835036AC80FE96E000ECF
:100EA0000320EA6EECCF03F0ED52EF50016E0350D9
:100EB000026E020172D00001050E0201156F0001E1
:100EC00013DC0150016E0250026E020166D0000177
:100ED000F051036EEF51EF2BD8B4F02B016E03509D
:100EE000026E02015AD00001E951016EEA51026E10
:100EF000020153D00001EB51016EEC51026E020170
:100F00004CD00001ED51016EEE51026E020145D050
:100F1000000126D6000E016E026E02013ED00001D5
:100F2000036A2350016E0350026E020136D00001A5
:100F30002450016E2550026E02012FD00001500E88
:100F4000016E000E026E020128D00001570E016EE4
:100F5000000E026E020121D00001580E016E000E3B
:100F6000026E02011AD00001010E016E000E026E27
:100F7000020113D00001036A2150016E0350026E7A
:100F800002010BD000012650016E2750026E0201B3
:100F900004D0FF0E016E026E00D00001F4EF07F0E6
:100FA00008C211F207C212F2A1DDD89002010B357E
:100FB000116F0C35126F11C213F2000183DD0201B3
:100FC0000E6B0D6B0E510C5D22E303E10B510D5DB9
:100FD0001EE20D510925116F0E510A21126F146F77
:100FE00011C213F20001C4D502C010F201C00FF209
:100FF00010C211F210C213F265DD0FC211F20FC25E
:1010000013F260DD02010D2BD8B40E2BDBD70001EB
:1010100082DD5EEF09F002010E51060832E2FF0A9E
:1010200003E10D51CF082DE20E5109082AE303E137
:101030000D51CF0826E31051000808E2FF0A03E132
:101040000F51000803E2030E016EA2D00EC2AAFFE8
:101050000DC2A9FF0FC2A8FFA69CA69EA684F250AF
:10106000006EF29E0F01550EA76EAA0EA76EA68205
:10107000A6B2FED7A6940050F212000E016E020135
:1010800087D00001F1531BE002010D51E80809E18E
:101090000E51030806E10FC223F0000E016E78D056
:1010A0000DD00D51E9080AE10E51030807E110C205
:1010B00025F00FC224F0000E016E6AD0000102017B
:1010C0000D51006E0E51036E030E035C05E1EE0E32
:1010D000005C00011AE00201070E035C05E1CE0E80
:1010E000005C000122E00201070E035C05E1CF0E67
:1010F000005C000126E002014E0E035C05E11F0EBC
:10110000005C00012BE002013ED002010F3D02D045
:10111000105308E0105303E10F517F0803E2030E60
:10112000016E36D00FC221F031D002010F2D02D056
:10113000105303E0030E016E2BD0000127DC0201E7
:1011400025D002010F2D02D0105303E0030E016ED3
:101150001FD000019DEC04F0020118D002010F51D4
:101160000A0803E11051070806E00001F16B030EC5
:10117000016E02010DD0010E0001F16FC80EF66F75
:10118000F76F020103D0020E016E02D0000E016E55
:101190000001120009C211F2060E0201126F0001D5
:1011A000A5DC0BC20EF20BC213F28CDC0AC20EF2EB
:1011B0000AC213F287DC0DC20EF20DC213F282DCFA
:1011C0000CC20EF20CC213F27DDCA5DC95EF09F027
:1011D00007C211F2100E0201126F000187DC09C272
:1011E0000CF209C213F26EDC08C20CF208C213F250
:1011F00069DC0BC20CF20BC213F264DC0AC20CF203
:101200000AC213F25FDC87DCEFEF09F004D401526D
:10121000D8B403D1213C01D004D02150FC5DD8A426
:10122000F1D0E93D03D0EA3D01D003D0E92BD8B499
:10123000EA2B140EF66FFE51030A08E0070A06E0D7
:10124000020A3DE0160AD8B471D0CBD000C102F238
:1012500001C101F202C104F203C103F20201035110
:101260000125076F04510221086F02C20AF201C270
:1012700009F20C6F07C20BF200011CEF05F00152DE
:1012800010E1FCC007F20201096BFEC008F2020E79
:101290000A6F000155DCEE6B020EED6F640EF76F06
:1012A0000DD0FEC007F2FCC008F202C20AF201C271
:1012B00009F204C20CF203C20BF272D6A2D000C132
:1012C00002F201C101F202C108F203C107F202C237
:1012D0000EF201C20DF202C110F203C10FF29BDE49
:1012E00001C005F20201055310E0FCC007F2096BD2
:1012F000FEC008F205C20AF2000122DCEE6B05C254
:10130000EDF0640EF76F11D0020102C108F203C1C3
:1013100007F2FCC009F202C20BF201C20AF202C1DA
:101320000DF203C10CF2000135D76BD000C102F2FF
:1013300001C101F202C104F203C103F20201066B12
:10134000045303E10351065D3CE206510125076F9A
:10135000000E0221086FD8900635050FE96E010EC8
:10136000EA6EEFCF09F2D8900635060FE96E010E4E
:10137000EA6EEFCF0AF209C20CF20AC20BF208C2FF
:101380000EF207C20DF209C210F20AC20FF20001FA
:1013900042DE01C005F20201055311E0FCC007F274
:1013A000096BFEC008F205C20AF20001A0EC05F0CC
:1013B000EE6B05C2EDF0640EF76F020102D0062B52
:1013C000BFD705530CE1FCC007F202C209F201C20B
:1013D00008F204C20BF203C20AF20001F9D60001BE
:1013E00010D0FCC007F20201096BFEC008F2010E2A
:1013F0000A6F0001A0EC05F0EE6B010EED6F640EBC
:10140000F76F0BD0EB3D03D0EC3D01D003D0EB2BBD
:10141000D8B4EC2B140EF66FF76FD3EF0CF0F86A1C
:10142000D09E078EEA6AE96A500ED36E9B9C9B9E03
:10143000206AB896190EAF6EA60EAC6E900EAB6E0B
:101440007096190E756EA60E726E900E716EF891F2
:10145000F96BC150F00BC16E000E0F01386F3C6F7D
:10146000396F3A6F3B6F776A786A796A1A6A1B6AD2
:10147000D0500F0BD0A8000ED080D082D088D88654
:10148000D8880001F26F4AEF02F08DEC02F001C043
:10149000F3F0929C899C929E898E0A0E0201026F43
:1014A000000176EC02F0B60EF66E030EF76E100E2B
:1014B0000201036F0001B6EC02F0CC0EF66E030ED3
:1014C000F76ECBEC02F00D0E9EA8FED7AD6E0A0EA5
:1014D0009EA8FED7AD6E94968B9694948B94020E34
:1014E0000201006FFA0E026F000176EC02F00201B9
:1014F000002FF8D7040094968B8694948B94640EF6
:10150000026F000176EC02F0040094968B869494AE
:101510008B84020E0201006FFA0E026F000176EC5E
:1015200002F00201002FF8D7040094968B96949451
:101530008B84640E026F000176EC02F00400949636
:101540008B9694948B94020E0201006FFA0E026F38
:10155000000176EC02F00201002FF8D70400000130
:10156000DCEC02F08DEC02F001C000F2D60EF66E5B
:10157000030EF76E050E0201036F0001B6EC02F0D8
:1015800000C202F21B0E0201036F000134EF03F0F0
:10159000200E9EA8FED7AD6EE00EF66E030EF76E1F
:1015A000CBEC02F00201156B000174EC03F002C0F9
:1015B00001F201C000F2E40EF66E030EF76E050EA6
:1015C0000201036F0001B6EC02F0090EE96E01C2E0
:1015D00004F200C203F2B0EC03F0200E9EA8FED786
:1015E000AD6E010E0201156F000174EC03F002C034
:1015F00001F201C000F2F00EF66E030EF76E050E5A
:101600000201036F0001B6EC02F0090EE96E01C29F
:1016100004F200C203F2B0EC03F0200E9EA8FED745
:10162000AD6E020E0201156F000174EC03F002C0F2
:1016300001F201C000F2FC0EF66E030EF76E050E0D
:101640000201036F0001B6EC02F0090EE96E01C25F
:1016500004F200C203F2B0EC03F0200E9EA8FED705
:10166000AD6E030E0201156F000174EC03F002C0B1
:1016700001F201C000F2080EF66E040EF76E050EC0
:101680000201036F0001B6EC02F0090EE96E01C21F
:1016900004F200C203F2B0EC03F0200E9EA8FED7C5
:1016A000AD6E040E0201156F000174EC03F002C070
:1016B00001F201C000F2140EF66E040EF76E050E74
:1016C0000201036F0001B6EC02F0090EE96E01C2DF
:1016D00004F200C203F2B0EC03F0200E9EA8FED785
:1016E000AD6E050E0201156F000174EC03F002C02F
:1016F00001F201C000F2200EF66E040EF76E050E28
:101700000201036F0001B6EC02F0090EE96E01C29E
:1017100004F200C203F2B0EC03F0200E9EA8FED744
:10172000AD6E2C0EF66E040EF76ECBEC02F0000ED2
:10173000016EC250830B0110C26E0400020E006ED7
:10174000002EFED700D0C282C2B2FED7C4CF01F2B3
:101750000201C3CF00F23E0EF66E040EF76E050EC8
:10176000036F0001B6EC02F0090EE96E01C204F24B
:1017700000C203F2B0EC03F0200E9EA8FED7AD6EBF
:10178000040E016EC250830B0110C26E0400020EE3
:10179000006E002EFED700D0C282C2B2FED7C4CFE8
:1017A00001F20201C3CF00F24A0EF66E040EF76E8C
:1017B000050E036F0001B6EC02F0090EE96E01C2DE
:1017C00004F200C203F2B0EC03F0200E9EA8FED794
:1017D000AD6E080E016EC250830B0110C26E040084
:1017E000020E006E002EFED700D0C282C2B2FED71B
:1017F000C4CF01F20201C3CF00F2560EF66E040E02
:10180000F76E050E036F0001B6EC02F0090EE96EEB
:1018100001C204F200C203F2B0EC03F0200E9EA855
:10182000FED7AD6E0C0E016EC250830B0110C26E5E
:101830000400020E006E002EFED700D0C282C2B29B
:10184000FED7C4CF01F20201C3CF00F2620EF66EE2
:10185000040EF76E050E036F0001B6EC02F0090EE0
:10186000E96E01C204F200C203F2B0EC03F0200EF4
:101870009EA8FED7AD6E100E016EC250830B0110F4
:10188000C26E0400020E006E002EFED700D0C2828F
:10189000C2B2FED7C4CF01F20201C3CF00F26E0E76
:1018A000F66E040EF76E050E036F0001B6EC02F043
:1018B000090EE96E01C204F200C203F2B0EC03F0BB
:1018C000200E9EA8FED7AD6E280E016EC250830B6F
:1018D0000110C26E0400020E006E002EFED700D072
:1018E000C282C2B2FED7C4CF01F20201C3CF00F25E
:1018F0007A0EF66E040EF76E050E036F0001B6EC5D
:1019000002F0090EE96E01C204F200C203F2B0EC6B
:1019100003F0200E9EA8FED7AD6E860EF66E040E66
:10192000F76ECBEC02F0938481B402D08B9001D09F
:101930008B809490938681B602D08B9201D08B825B
:101940009492938881B802D08B9801D08B88949818
:10195000938A81BA02D08B9A01D08B8A949A640EB2
:101960000201026F000176EC02F00400F9D5D8EF15
:1019700004F0213C01D005D021507F0802E2C6ECE2
:1019800004F0AB8EAB8804EF05F00101FF6BFF5153
:101990001D0806E30001DCEC02F00101FF2BF7D784
:0C19A0000400000133D40101FBD7030058
:020000040030CA
:0E00000000281E3F003F81000FC00FE00F40A0
:00000001FF
;PIC18F26K22
;CRC=900F  CREATED="09-Nov-15 14:16"
