:0400000078EF0BF09A
:08000800046ED8CF05F0E0CF33
:1000100006F00001E9CF0CF0EACF07F0E1CF08F0DD
:10002000E2CF09F0D9CF0AF0DACF0BF0F3CF12F01C
:10003000F4CF13F0FACF14F0F5CF15F0F6CF16F099
:10004000F7CF17F000C00EF001C00FF002C010F0A3
:1000500003C011F0F2AA30EF00F0F2B477EF01F034
:10006000A3AA36EF00F0A4BAB1EF01F00EC000F081
:100070000FC001F010C002F011C003F00CC0E9FF86
:1000800007C0EAFF078E08C0E1FF09C0E2FF0AC00F
:10009000D9FF0BC0DAFF12C0F3FF13C0F4FF14C086
:1000A000FAFF15C0F5FF16C0F6FF17C0F7FF0450A2
:1000B00006C0E0FF05C0D8FF1000F76ACA0FF66E51
:1000C000000EF7220900F550120000C1814001C066
:1000D000804101C0804100C1814001C0804100C118
:1000E000814000C1814001C0804101C0804100C108
:1000F000814000C1814001C0804100C1814001C0F8
:10010000804101C0804100C1814001C0804100C1E7
:10011000814000C1814001C0804100C1814001C0D7
:10012000804101C0804100C1814000C1814001C0C7
:10013000804101C0804100C1814001C0804100C1B7
:10014000814000C1814001C0804101C0804100C1A7
:10015000814000C1814001C0804100C1814001C097
:10016000804101C0804100C1814000C1814001C087
:10017000804101C0804100C1814001C0804100C177
:10018000814000C1814001C0804100C1814001C067
:10019000804101C0804100C1814001C0804100C157
:1001A000814000C1814001C0804101C0804100C147
:1001B000814000C1814001C0804100C1814001C037
:1001C000804101C0804100C18140F76ADA0FF66EBC
:1001D000010EF7220900F550120000C0C101C3034F
:1001E00002C2C60607C705C5C404CC0C0DCD0FCF8F
:1001F000CE0E0ACACB0BC90908C8D81819D91BDBFF
:10020000DA1A1EDEDF1FDD1D1CDC14D4D515D7174E
:1002100016D6D21213D311D1D010F03031F133F3FE
:10022000F23236F6F737F53534F43CFCFD3DFF3F4E
:100230003EFEFA3A3BFB39F9F83828E8E929EB2B7E
:100240002AEAEE2E2FEF2DEDEC2CE42425E527E70E
:10025000E62622E2E323E12120E0A06061A163A37E
:10026000A26266A6A767A56564A46CACAD6DAF6F0E
:100270006EAEAA6A6BAB69A9A86878B8B979BB7B7E
:100280007ABABE7E7FBF7DBDBC7CB47475B577B7CE
:10029000B67672B2B373B17170B0509091519353FE
:1002A000529296565797559594549C5C5D9D5F9FCE
:1002B0009E5E5A9A9B5B99595898884849894B8BFE
:1002C0008A4A4E8E8F4F8D4D4C8C4484854587478E
:1002D00046868242438341818040F29A0201445320
:1002E00004E0D76AD66AF294F28A00011200010192
:1002F0001D5102080AE11E5308E11F5306E11CB11B
:1003000004D0020E215F1C8101D01C911F691E695F
:100310001D6B0201446B0001E0DFF29436EF00F048
:10032000A4AAFED771CF20F074CF01F020A202D092
:1003300071987188120001011F5102014419456F23
:10034000036A45510001B9DE016E01011E51011819
:100350001F6F036A02014551000137DFE8CF1EF12C
:100360001200DEDF01C043F201011CB12BD01D538E
:1003700008E11F691E6943C220F11D2B216B236B0D
:1003800017D01D2D04D043C222F11D2B11D01D51B9
:1003900002080EE1213D02D0FE0E216F240E212520
:1003A000E96E010EEA6ED8B0EA2A43C2EFFF212BB4
:1003B00043C244F20001BFDF010E0201446F00019D
:1003C0008CDF0101A49A000136EF00F02320747342
:1003D0005453656C6563746F722E632025730D0A28
:1003E000000031302D4E6F762D3135002320693DD0
:1003F00025752073773D257520000D0A00002854CF
:1004000033293D2530346C752000285432293D2590
:1004100030346C752000285431293D2530346C75FA
:100420002000285430293D2530346C75200028499F
:100430004E293D2530346C752000285434293D2543
:1004400030346C7520003C2D2066696C74657265D3
:1004500064200D0A0000285433293D2530346C7582
:100460002000285432293D2530346C752000285452
:1004700031293D2530346C752000285430293D2524
:1004800030346C75200028494E293D2530346C7578
:100490002000285434293D2530346C7520003C2D33
:1004A00020756E2D66696C74657265640D0A0000B6
:1004B0002320726573746172745F6361757365285C
:1004C000293D257520005744545F54494D454F55EB
:1004D00054004D434C525F46524F4D5F534C45457F
:1004E00050004D434C525F46524F4D5F52554E00A7
:1004F0004E4F524D414C5F504F5745525F55500043
:1005000042524F574E4F55545F52455354415254E7
:1005100000005744545F46524F4D5F534C45455081
:10052000000052455345545F494E5354525543546D
:10053000494F4E00756E6B6E6F776E2100000D0A8D
:100540000000500ED36E9B9C9B9ED180C050C00B70
:100550000709C06EC08EC280C150F00BC16E2F0E55
:100560000F01386F000E3C6F020E396F000E3A6FAC
:100570003B6FC08E416B426BC66A0101186B196BF1
:100580001A6B1B6B0E6B0D6B106B0F6B126B116B81
:10059000146B136B0C6B156B0001B0EF0BF00201C9
:1005A0002F6B2EC203F02D51D8B42E072D07306FBC
:1005B00003C031F2305302E1315332E02CC203F078
:1005C0002B51E96E03C0EAFF2A51036E2951292BF2
:1005D000D8B42A2B326F03C033F2F2CF34F2F29E3A
:1005E00033C2AAFF32C2A9FFA69CA69EA680A8502D
:1005F00034BFF28EEF6E2CC203F02B51E96E03C0B4
:10060000EAFFEFCF30F22FC241F230C242F2415145
:100610004219016E01C02FF22B2BD8B42C2BC1D75D
:100620002FC201F00001FAEF03F002013F6B3EC25E
:1006300003F03D51D8B43E073D07406F03C041F27F
:10064000405302E141533EE03CC203F03B51E96EAE
:1006500003C0EAFFEFCF40F23FC241F240C242F294
:1006600041514219016E01C03FF23A51036E3951B6
:10067000392BD8B43A2B406F03C041F23C51036E82
:100680003B513B2BD8B43C2BE96E03C0EAFFEFCFC4
:1006900042F241C2AAFF40C2A9FF42C2A8FFA69CE3
:1006A000A69EA684F250006EF29E0F01550EA76E14
:1006B000AA0EA76EA682A6B2FED7A6940050F2128A
:1006C0000201B5D73FC201F0000177EF03F002014C
:1006D000386B210E376F3A6B040E396F38C23CF21B
:1006E00037C23BF23E6B2B0E3D6F00019ED701C01F
:1006F00036F2AA6A020EA96E36C2A8FFA69CA69E72
:10070000A684F250006EF29E0F01550EA76EAA0E3F
:10071000A76EA682A6B2FED7A6940050F2120001E0
:100720001200960E0101186F196F1A6F1B6F290EB8
:10073000216E410E236E260E256E940E246E276ABE
:10074000140E266E030E296E890E286E030E2B6E74
:10075000670E2A6E030E2D6E400E2C6E030E2F6E4A
:10076000120E2E6E020E316EE00E306E020E336EE1
:10077000AB0E326E020E356E720E346E020E376E96
:10078000390E366E020E396E386A010E3B6EC90E96
:100790003A6E010E3D6E950E3C6E010E3F6E650E7B
:1007A0003E6E010E416E390E406E010E436E110E0B
:1007B000426E456AEE0E446E020E476E466A010EA8
:1007C000496ECD0E486E010E4B6EBC0E4A6E000196
:1007D0007EDF12000201286B210E276F2A6B040EA8
:1007E000296F28C22CF227C22BF22E6B2B0E2D6FF5
:1007F0000001D5D601C026F2F2CF27F2F29EAA6AF6
:10080000020EA96EA69CA69EA680A850020127BF34
:10081000F28E265D03E0000184DF02010001120078
:100820000201286B276B2635006E0036FC0E001681
:10083000C250830B0010C26E0400020E006E002E28
:10084000FED700D0296B29510F0809E3C282C2B23A
:10085000FED7C3502727C4502823292BF4D7080ECE
:1008600027252A6F000E28212B6F2B31036E2A318A
:10087000026E0332023203320232033202320F0EB0
:10088000031602C001F003C002F00001BAEF0BF042
:10089000020EEA6E270EE96EEF5011E0010E016EB6
:1008A000BF0E006E0400002EFDD7012EF9D74A0EB0
:1008B000006E002EFED700000400EF2EEFD71200CE
:1008C00094968B9694948B84640E0201276F00019A
:1008D000DFDF94968B8694948B84F2CF26F2F29E7F
:1008E000AA6AA96AA69CA69EA680A850020126BF55
:1008F000F28E010816E0AA6AA96A010EA86EA69CEB
:10090000A69EA684F250006EF29E0F01550EA76EB1
:10091000AA0EA76EA682A6B2FED7A6940050F21227
:1009200002010001C9EF0BF00201266B3C0E616E63
:10093000F19E010E276F0001ABDF938481B404D0D8
:10094000010E020126270001938681B604D0020E13
:10095000020126270001938881B804D0040E020109
:1009600026270001938A81BA03D0080E02012627A8
:10097000020126C201F000011200F2CF26F2F29E1F
:10098000AA6AA96AA69CA69EA680A850020126BFB4
:10099000F28E000A01E121D094968B8694948B9478
:1009A000640E276F000174DF94968B8694948B8479
:1009B000AA6AA96AA86AA69CA69EA684F250006E9E
:1009C000F29E0F01550EA76EAA0EA76EA682A6B2C2
:1009D000FED7A6940050F21202010001D9EF0BF0ED
:1009E0000900F6CF29F2F7CF2AF2F5509EA8FED7DC
:1009F000AD6E29C2F6FF2AC2F7FF0201282F01D0EF
:100A000002D00001EDD7000112000900F5520DE0FF
:100A1000F6CF26F2F7CF27F2F5509EA8FED7AD6E9F
:100A200026C2F6FF27C2F7FFF0D7120001010C2BF8
:100A30000C510F0801E20C6B0201266B26510508D0
:100A400036E3265104080AE32635006E0036FC0E14
:100A50000016C250830B0010C26E06D0280E016E25
:100A6000C250830B0110C26E0400020E006E002EF5
:100A7000FED700D02651200DF350286B276FD89059
:100A800001010C35036A02012725016E285103225A
:100A900001504C0FE96E000E0320EA6EC282C2B212
:100AA000FED7C3CFEFFFC4CFECFF262BC7D7000183
:100AB000120002012A51016A295D03E229C200F0F5
:100AC0000CD0006A080E2B6F293700362A51005CC3
:100AD000D8B0006E01362B2FF7D70001120001505D
:100AE00027C229F2640E02012A6F0001E2DF00C072
:100AF00027F20150300E08E1020128A30ED028B7DA
:100B00000CD028B9200E04D00201289728992881FA
:100B1000012601509EA8FED7AD6E27C229F20A0E0B
:100B20002A6F0001C6DF00C027F20150300E08E135
:100B3000020128B70BD028A109D028B9200E000146
:100B4000012601509EA8FED7AD6E0201300E272768
:100B500027519EA8FED7AD6E0001120002013A5146
:100B6000200DF350036A4C0F016E000E032201C0EA
:100B70003EF203C03FF23C6B3B6B3D6B3D510F08B7
:100B800011E3D8903D35036A3E25E96E3F510320BD
:100B9000EA6EECCF03F0ED52EF503B2703503C23BD
:100BA0003D2BECD7080E3B25406F000E3C21416FDA
:100BB0004131036E4031026E03320232033202329F
:100BC000033202320F0E031602C001F003C002F01E
:100BD00000011200EACF30F2E9CF2FF202012939E9
:100BE000F0092B6F2B27E20F2C6F320F2E6F29513C
:100BF0000F0B2C272C272E27E90F2D6F2D272D27A4
:100C000028390F0B2D272E272D372E372E1F2E3745
:100C100028510F0B2E272B37070E2A6F0A0E2D0790
:100C20002E27FDE32C072D27FDE32B072C27FDE3C3
:100C30002A072B27FDE3020EEA6E2A0EE96E070E45
:100C40002F152F9DE9262E0EE95CD8B42F8DEF507D
:100C5000006E08E12FBD06D02FB90CD02FB702D0FF
:100C6000200E03D02F872F99300E002600509EA80B
:100C7000FED7AD6EEE502FADE6D700011200A4AA4C
:100C800003D090EC01F0FBD79D8A1200F8DFC60E6E
:100C9000D56EC00EF21297EF0EF001011CB104D018
:100CA000000E016E0AD006D022AF04D024C123F179
:100CB000010E216F1C91010E016E00015EEF0AF022
:100CC00002012E511F080CE12F514E0809E130514D
:100CD000200806E131514E0803E1010E016E2ED0CD
:100CE0002F5102080FE2FF0A03E12E51E7080AE242
:100CF0003151030807E303E13051F40803E3010E27
:100D0000016E1CD02F5106080FE2FF0A03E12E519D
:100D1000CF080AE23151090807E303E13051D10855
:100D200003E3010E016E0AD0315306E1305134085D
:100D300003E3010E016E02D0000E016E00019AEF76
:100D40000AF0A4A8FED7736EAAEF06F0020138518C
:100D50000001F7D7196AF2BE198EF29E38C244F22A
:100D60009BEC01F019BEF28E0400020E006E002E04
:100D7000FED70000120001011F691E691C919D9A97
:100D80000400090E006E002EFED700D036C238F2E5
:100D90000001DCDF37C238F2D9DF1200ACA2FED787
:100DA000DDEF06F01FC137F21EC136F237C238F24E
:100DB000CDDF36C238F2CADFF1D70400090E006E6B
:100DC000002EFED700D05BDF01011F691E69000104
:100DD000120002012D518009306F2EC231F22CC257
:100DE00036F2376F0001C7DF2FC238F2AFDFDADF2C
:100DF000120001010E6B0D6B106B0F6B126B116B00
:100E00000001DFEF08F002013951060824E2FF0A71
:100E100003E13851CF081FE2395109081CE303E10F
:100E20003851CF0818E3D00E385D3A6F070E3959A4
:100E30003B6FF2CF3CF2F29E3BC2AAFF3AC2A9FF3F
:100E4000A69CA69EA680A8503CBFF28E036A016EA7
:100E50000350026EF7D13851006E3951036E0350C2
:100E600006E1120E005C0001D8B4CAD002010350A2
:100E700006E1130E005C0001D8B4D5D00201035086
:100E800006E1150E005C0001D8B4D8D00201035071
:100E900006E1160E005C0001D8B4E3D00201035055
:100EA00006E1180E005C0001D8B4E7D0020103503F
:100EB00006E1190E005C0001D8B4F2D00201035023
:100EC00006E11B0E005C0001D8B4F6D0020103500D
:100ED00006E11C0E005C0001D8B401D102010350F0
:100EE00006E11E0E005C0001D8B405D102010350DA
:100EF00006E11F0E005C0001D8B410D102010350BE
:100F000006E1210E005C0001D8B414D102010350A7
:100F100006E1220E005C0001D8B41FD1020103508B
:100F200006E12A0E005C0001D8B423D1020103506F
:100F300006E1300E005C0001D8B428D10201035054
:100F400006E1310E005C0001D8B428D10201035043
:100F500006E1320E005C0001D8B428D10201035032
:100F600006E1330E005C0001D8B428D10201030E63
:100F7000035C06E1E80E005C0001D8B426D1020152
:100F8000030E035C06E1E90E005C0001D8B425D134
:100F90000201030E035C06E1EA0E005C0001D8B416
:100FA00023D10201030E035C06E1EB0E005C00019D
:100FB000D8B421D10201030E035C06E1EC0E005C03
:100FC0000001D8B41FD10201030E035C06E1ED0E4F
:100FD000005C0001D8B41DD10201030E035C06E1E0
:100FE000EE0E005C0001D8B41BD10201030E035CBD
:100FF00006E1EF0E005C0001D8B41AD102011ED147
:10100000D89001010C35036A4C0FE96E000E0320E5
:10101000EA6EECCF03F0ED52EFCF01F003C002F027
:10102000020110D1000102013A6B000197DD01506D
:10103000016E0250026E020105D10001D89001013B
:101040000C35036A6C0FE96E000E0320EA6EECCFDC
:1010500003F0ED52EF50016E0350026E0201F2D028
:101060000001010E02013A6F000178DD0150016EAE
:101070000250026E0201E6D00001D89001010C3549
:10108000036A8C0FE96E000E0320EA6EECCF03F0CA
:10109000ED52EF50016E0350026E0201D3D00001F9
:1010A000020E02013A6F000159DD0150016E02503B
:1010B000026E0201C7D00001D89001010C35036A0D
:1010C000AC0FE96E000E0320EA6EECCF03F0ED5298
:1010D000EF50016E0350026E0201B4D00001030E06
:1010E00002013A6F00013ADD0150016E0250026EBA
:1010F0000201A8D00001D89001010C35036ACC0F81
:10110000E96E000E0320EA6EECCF03F0ED52EF50D3
:10111000016E0350026E020195D00001040E02011F
:101120003A6F00011BDD0150016E0250026E020198
:1011300089D00001D89001010C35036AEC0FE96EEB
:10114000000E0320EA6EECCF03F0ED52EF50016E7B
:101150000350026E020176D00001050E02013A6FC3
:101160000001FCDC0150016E0250026E02016AD0E7
:10117000000101011451036E1351132BD8B4142B29
:10118000016E0350026E02015DD0000101010D519C
:10119000016E0E51026E020155D0000101010F5186
:1011A000016E1051026E02014DD00001010111517A
:1011B000016E1251026E020145D000011AD6000ED6
:1011C000016E026E02013ED00001036A2350016EDF
:1011D0000350026E020136D000012450016E2550EA
:1011E000026E02012FD00001500E016E000E026E41
:1011F000020128D00001570E016E000E026E02019E
:1012000021D00001580E016E000E026E02011AD0AC
:101210000001010E016E000E026E020113D00001EA
:10122000036A2150016E0350026E02010BD00001CF
:101230002650016E2750026E020104D0FF0E016E8F
:10124000026E00D0000149EF09F02DC236F22CC227
:1012500037F291DDD89002013035366F3135376F76
:1012600036C238F2000172DD0201336B326B33514A
:10127000315D22E303E13051325D1EE232512E2511
:10128000366F33512F21376F396F36C238F2000174
:10129000BAD502C035F201C034F235C236F235C2D9
:1012A00038F254DD34C236F234C238F24FDD020176
:1012B000322BD8B4332BDBD7000174DDBBEF0AF03F
:1012C00002013351060832E2FF0A03E13251CF082E
:1012D0002DE2335109082AE303E13251CF0826E316
:1012E0003551000808E2FF0A03E13451000803E227
:1012F000030E016EA3D033C2AAFF32C2A9FF34C2CB
:10130000A8FFA69CA69EA684F250006EF29E0F0136
:10131000550EA76EAA0EA76EA682A6B2FED7A694F9
:101320000050F212000E016E020188D00101155327
:101330001BE002013251E80809E13351030806E1DC
:1013400034C223F0000E016E79D00DD03251E9087D
:101350000AE13351030807E135C225F034C224F015
:10136000000E016E6BD0010102013251006E33514B
:10137000036E030E035C05E1EE0E005C00011AE053
:101380000201070E035C05E1CE0E005C000122E0C5
:101390000201070E035C05E1CF0E005C000127E0AF
:1013A00002014E0E035C05E11F0E005C00012CE003
:1013B00002013FD00201343D02D0355308E03553DD
:1013C00003E134517F0803E2030E016E37D034C2CB
:1013D00021F032D00201342D02D0355303E0030E48
:1013E000016E2CD0000191EC03F0020125D0020126
:1013F000342D02D0355303E0030E016E1FD00001DF
:1014000067EC03F0020118D0020134510A0803E12D
:101410003551070806E00101156B030E016E02014C
:101420000DD0010E0101156FC80E1A6F1B6F02015E
:1014300003D0020E016E02D0000E016E00011200F8
:101440002EC236F2060E0201376F000194DC30C264
:1014500033F230C238F27ADC2FC233F22FC238F2C4
:1014600075DC32C233F232C238F270DC31C233F290
:1014700031C238F26BDC96DCF4EF0AF02CC236F2A3
:10148000100E0201376F000176DC2EC231F22EC23F
:1014900038F25CDC2DC231F22DC238F257DC30C29A
:1014A00031F230C238F252DC2FC231F22FC238F2A0
:1014B0004DDC78DC56EF0BF04DEF06F00152D8B45E
:1014C00014D1213C01D006D021500101205DD8A4C7
:1014D00001D1000101010D3D03D00E3D01D003D02B
:1014E0000D2BD8B40E2B140E1A6F2251030A0001D3
:1014F00008E0070A06E0020A40E0160AD8B476D0EF
:10150000D7D024C127F225C126F226C129F227C14E
:1015100028F20201285126252C6F295127212D6FF1
:1015200027C22FF226C22EF2316F2CC230F20001F8
:1015300060EF06F0015212E120C12CF202012E6B85
:1015400022C12DF2020E2F6F000143DC0101126B4C
:10155000020E116F640E1B6F0FD0000122C12CF21E
:1015600020C12DF227C22FF226C22EF229C231F25B
:1015700028C230F26AD60101ACD024C127F225C1BD
:1015800026F226C12DF227C12CF227C233F226C241
:1015900032F226C135F227C134F292DE01C02AF2BE
:1015A00002012A5311E020C12CF22E6B22C12DF230
:1015B0002AC22FF200010DDC0101126B2AC211F1C7
:1015C000640E1B6F12D0020126C12DF227C12CF22E
:1015D00020C12EF227C230F226C22FF226C132F2EB
:1015E00027C131F200012CD7010173D024C127F2A9
:1015F00025C126F226C129F227C128F202012B6B50
:10160000295303E128512B5D43E22B5126252C6FF2
:10161000000E27212D6FD8902B35050F240FE96E72
:10162000010EEA6ED8B0EA2AEFCF2EF2D8902B3511
:10163000060F240FE96E010EEA6ED8B0EA2AEFCF4A
:101640002FF22EC231F22FC230F22DC233F22CC251
:1016500032F22EC235F22FC234F2000131DE01C067
:101660002AF202012A5312E020C12CF22E6B22C171
:101670002DF22AC22FF20001E9EC06F00101126BF3
:101680002AC211F1640E1B6F020102D02B2BB8D7B6
:101690002A530CE120C12CF227C22EF226C22DF2D1
:1016A00029C230F228C22FF20001E8D6010111D080
:1016B00020C12CF202012E6B22C12DF2010E2F6FE0
:1016C0000001E9EC06F00101126B010E116F640ECE
:1016D0001B6F0BD00F3D03D0103D01D003D00F2B5B
:1016E000D8B4102B140E1A6F1B6F0001A6EF0EF06A
:1016F000F86AD09E078EEA6AE96A500ED36E9B9C08
:101700009B9E206AB896190EAF6EA60EAC6E900E18
:10171000AB6E7096190E756EA60E726E900E716E8F
:1017200001011C911D6BC150F00BC16E000E0F0129
:10173000386F3C6F396F3A6F3B6F776A786A796AB6
:101740001A6A1B6AD0500F0BD0A8000ED080D0822E
:10175000D088D886D8880101166F0001A1EF02F069
:1017600094908B80EAEC03F0040E0201266F0001D6
:1017700010EF04F002C025F201C024F2495002012A
:10178000255D0DE303E12451485C09E2000160EFAF
:1017900004F094EC04F001C017F10BD002012551C4
:1017A0004B5C08E303E14A50245D04E20001BDEF15
:1017B00004F0020194908B900300929C899C929E6D
:1017C000898E0A0E276F000148EC04F0CC0EF66EED
:1017D000030EF76E100E0201286F0001F0EC04F00A
:1017E000E20EF66E030EF76E05EC05F00D0E9EA8E8
:1017F000FED7AD6E0A0E9EA8FED7AD6E0201236B1A
:1018000023511108D8A01CD2000116EC05F094EC6D
:1018100004F001C026F2EC0EF66E030EF76E040E15
:101820000201286F0001F0EC04F023C227F21B0E26
:101830000201286F00016FEC05F0F20EF66E030E48
:10184000F76E040E0201286F0001F0EC04F026C2CE
:1018500027F21B0E0201286F00016FEC05F0200E2D
:101860009EA8FED7AD6EFA0EF66E030EF76E05EC6F
:1018700005F002013A6B0001AEEC05F002C027F260
:1018800001C026F2FE0EF66E030EF76E050E020183
:10189000286F0001F0EC04F0090EE96E27C229F26E
:1018A00026C228F2EAEC05F0200E9EA8FED7AD6E07
:1018B000010E02013A6F0001AEEC05F002C027F202
:1018C00001C026F20A0EF66E040EF76E050E020136
:1018D000286F0001F0EC04F0090EE96E27C229F22E
:1018E00026C228F2EAEC05F0200E9EA8FED7AD6EC7
:1018F000020E02013A6F0001AEEC05F002C027F2C1
:1019000001C026F2160EF66E040EF76E050E0201E9
:10191000286F0001F0EC04F0090EE96E27C229F2ED
:1019200026C228F2EAEC05F0200E9EA8FED7AD6E86
:10193000030E02013A6F0001AEEC05F002C027F27F
:1019400001C026F2220EF66E040EF76E050E02019D
:10195000286F0001F0EC04F0090EE96E27C229F2AD
:1019600026C228F2EAEC05F0200E9EA8FED7AD6E46
:10197000040E02013A6F0001AEEC05F002C027F23E
:1019800001C026F22E0EF66E040EF76E050E020151
:10199000286F0001F0EC04F0090EE96E27C229F26D
:1019A00026C228F2EAEC05F0200E9EA8FED7AD6E06
:1019B000050E02013A6F0001AEEC05F002C027F2FD
:1019C00001C026F23A0EF66E040EF76E050E020105
:1019D000286F0001F0EC04F0090EE96E27C229F22D
:1019E00026C228F2EAEC05F0200E9EA8FED7AD6EC6
:1019F000460EF66E040EF76E05EC05F0000E016E55
:101A0000C250830B0110C26E0400020E006E002E45
:101A1000FED700D0C282C2B2FED7C4CF27F20201E5
:101A2000C3CF26F2560EF66E040EF76E050E286F23
:101A30000001F0EC04F0090EE96E27C229F226C27B
:101A400028F2EAEC05F0200E9EA8FED7AD6E040E3B
:101A5000016EC250830B0110C26E0400020E006EB4
:101A6000002EFED700D0C282C2B2FED7C4CF27F26A
:101A70000201C3CF26F2620EF66E040EF76E050E5B
:101A8000286F0001F0EC04F0090EE96E27C229F27C
:101A900026C228F2EAEC05F0200E9EA8FED7AD6E15
:101AA000080E016EC250830B0110C26E0400020EBC
:101AB000006E002EFED700D0C282C2B2FED7C4CFC5
:101AC00027F20201C3CF26F26E0EF66E040EF76EF9
:101AD000050E286F0001F0EC04F0090EE96E27C234
:101AE00029F226C228F2EAEC05F0200E9EA8FED7C5
:101AF000AD6E0C0E016EC250830B0110C26E04005D
:101B0000020E006E002EFED700D0C282C2B2FED7F7
:101B1000C4CF27F20201C3CF26F27A0EF66E040E6E
:101B2000F76E050E286F0001F0EC04F0090EE96E67
:101B300027C229F226C228F2EAEC05F0200E9EA860
:101B4000FED7AD6E100E016EC250830B0110C26E37
:101B50000400020E006E002EFED700D0C282C2B278
:101B6000FED7C4CF27F20201C3CF26F2860EF66E4F
:101B7000040EF76E050E286F0001F0EC04F0090E5C
:101B8000E96E27C229F226C228F2EAEC05F0200EFF
:101B90009EA8FED7AD6E280E016EC250830B0110B9
:101BA000C26E0400020E006E002EFED700D0C2826C
:101BB000C2B2FED7C4CF27F20201C3CF26F2920EE3
:101BC000F66E040EF76E050E286F0001F0EC04F0BF
:101BD000090EE96E27C229F226C228F2EAEC05F0C6
:101BE000200E9EA8FED7AD6E9E0EF66E040EF76E0A
:101BF00005EC05F0938481B402D08B9001D08B80EA
:101C00009490938681B602D08B9201D08B8294926D
:101C1000938881B802D08B9801D08B889498938A4E
:101C200081BA02D08B9A01D08B8A949A640E0201F9
:101C3000276F000148EC04F004000201232BE0D5DB
:101C4000B00EF66E040EF76E120E286F0001F0EC67
:101C500004F016C127F21B0E0201286F00016FEC81
:101C600005F0200E9EA8FED7AD6E01011651070AA1
:101C700000010DE00C0A12E0040A17E0030A1CE060
:101C8000020A21E00D0A26E0030A2BE031D0C60E3D
:101C9000F66E040EF76E05EC05F030D0D20EF66E3F
:101CA000040EF76E05EC05F029D0E20EF66E040E78
:101CB000F76E05EC05F022D0F00EF66E040EF76E0E
:101CC00005EC05F01BD0000EF66E050EF76E05EC68
:101CD00005F014D0120EF66E050EF76E05EC05F049
:101CE0000DD0220EF66E050EF76E05EC05F006D04F
:101CF000340EF66E050EF76E05EC05F03E0EF66E30
:101D0000050EF76E05EC05F0929C898C929E899EDB
:101D10000300EAEC03F0213C01D005D021507F08FC
:101D200002E291EC03F0AB8EAB8846EF06F00201C5
:101D3000236B23511D0806E3000116EC05F0020198
:101D4000232BF7D7040000015CEF0AF00201FAD759
:021D500003008E
:0200000400F00A
:08000000FF00FF00FF00FF00FC
:020000040030CA
:0E0000000028062F003F81000FC00FE00F40C8
:00000001FF
;PIC18F26K22
;CRC=7C7F  CREATED="10-Nov-15 13:15"
