:04000000DDEF0AF036
:08000800046ED8CF05F0E0CF33
:1000100006F00001E9CF0CF0EACF07F0E1CF08F0DD
:10002000E2CF09F0D9CF0AF0DACF0BF0F3CF12F01C
:10003000F4CF13F0FACF14F0F5CF15F0F6CF16F099
:10004000F7CF17F000C00EF001C00FF002C010F0A3
:1000500003C011F0F2AA30EF00F0F2B477EF01F034
:10006000A3AA36EF00F0A4BAB1EF01F00EC000F081
:100070000FC001F010C002F011C003F00CC0E9FF86
:1000800007C0EAFF078E08C0E1FF09C0E2FF0AC00F
:10009000D9FF0BC0DAFF12C0F3FF13C0F4FF14C086
:1000A000FAFF15C0F5FF16C0F6FF17C0F7FF0450A2
:1000B00006C0E0FF05C0D8FF1000F76ACA0FF66E51
:1000C000000EF7220900F550120000C1814001C066
:1000D000804101C0804100C1814001C0804100C118
:1000E000814000C1814001C0804101C0804100C108
:1000F000814000C1814001C0804100C1814001C0F8
:10010000804101C0804100C1814001C0804100C1E7
:10011000814000C1814001C0804100C1814001C0D7
:10012000804101C0804100C1814000C1814001C0C7
:10013000804101C0804100C1814001C0804100C1B7
:10014000814000C1814001C0804101C0804100C1A7
:10015000814000C1814001C0804100C1814001C097
:10016000804101C0804100C1814000C1814001C087
:10017000804101C0804100C1814001C0804100C177
:10018000814000C1814001C0804100C1814001C067
:10019000804101C0804100C1814001C0804100C157
:1001A000814000C1814001C0804101C0804100C147
:1001B000814000C1814001C0804100C1814001C037
:1001C000804101C0804100C18140F76ADA0FF66EBC
:1001D000010EF7220900F550120000C0C101C3034F
:1001E00002C2C60607C705C5C404CC0C0DCD0FCF8F
:1001F000CE0E0ACACB0BC90908C8D81819D91BDBFF
:10020000DA1A1EDEDF1FDD1D1CDC14D4D515D7174E
:1002100016D6D21213D311D1D010F03031F133F3FE
:10022000F23236F6F737F53534F43CFCFD3DFF3F4E
:100230003EFEFA3A3BFB39F9F83828E8E929EB2B7E
:100240002AEAEE2E2FEF2DEDEC2CE42425E527E70E
:10025000E62622E2E323E12120E0A06061A163A37E
:10026000A26266A6A767A56564A46CACAD6DAF6F0E
:100270006EAEAA6A6BAB69A9A86878B8B979BB7B7E
:100280007ABABE7E7FBF7DBDBC7CB47475B577B7CE
:10029000B67672B2B373B17170B0509091519353FE
:1002A000529296565797559594549C5C5D9D5F9FCE
:1002B0009E5E5A9A9B5B99595898884849894B8BFE
:1002C0008A4A4E8E8F4F8D4D4C8C4484854587478E
:1002D00046868242438341818040F29A0201425322
:1002E00004E0D76AD66AF294F28A00011200010192
:1002F0001D5102080AE11E5308E11F5306E11CB11B
:1003000004D0020E215F1C8101D01C911F691E695F
:100310001D6B0201426B0001E0DFF29436EF00F04A
:10032000A4AAFED771CF20F074CF01F020A202D092
:1003300071987188120001011F5102014219436F27
:10034000036A43510001B9DE016E01011E5101181B
:100350001F6F036A02014351000137DFE8CF1EF12E
:100360001200DEDF01C041F201011CB12BD01D5390
:1003700008E11F691E6941C220F11D2B216B236B0F
:1003800017D01D2D04D041C222F11D2B11D01D51BB
:1003900002080EE1213D02D0FE0E216F240E212520
:1003A000E96E010EEA6ED8B0EA2A41C2EFFF212BB6
:1003B00041C242F20001BFDF010E0201426F0001A3
:1003C0008CDF0101A49A000136EF00F02320747342
:1003D0005453656C6563746F722E632025730D0A28
:1003E000000031302D4E6F762D3135002320693DD0
:1003F00025752073773D257520000D0A00002854CF
:1004000033293D2530346C752000285432293D2590
:1004100030346C752000285431293D2530346C75FA
:100420002000285430293D2530346C75200028499F
:100430004E293D2530346C752000285434293D2543
:1004400030346C7520003C2D2066696C74657265D3
:1004500064200D0A0000285433293D2530346C7582
:100460002000285432293D2530346C752000285452
:1004700031293D2530346C752000285430293D2524
:1004800030346C75200028494E293D2530346C7578
:100490002000285434293D2530346C7520003C2D33
:1004A00020756E2D66696C74657265640D0A0000B6
:1004B0002320726573746172745F6361757365285C
:1004C000293D257520005744545F54494D454F55EB
:1004D00054004D434C525F46524F4D5F534C45457F
:1004E00050004D434C525F46524F4D5F52554E00A7
:1004F0004E4F524D414C5F504F5745525F55500043
:1005000042524F574E4F55545F52455354415254E7
:1005100000005744545F46524F4D5F534C45455081
:10052000000052455345545F494E5354525543546D
:10053000494F4E00756E6B6E6F776E2100000D0A8D
:100540000000500ED36E9B9C9B9ED180C050C00B70
:100550000709C06EC08EC280C150F00BC16E2F0E55
:100560000F01386F000E3C6F020E396F000E3A6FAC
:100570003B6FC08E416B426BC66A0101186B196BF1
:100580001A6B1B6B0E6B0D6B106B0F6B126B116B81
:10059000146B136B0C6B156B000115EF0BF0020E57
:1005A000EA6E250EE96EEF5011E0010E016EBF0EEE
:1005B000006E0400002EFDD7012EF9D74A0E006E02
:1005C000002EFED700000400EF2EEFD7120002012C
:1005D000246B3C0E616EF19E010E256F0001DFDF82
:1005E000938481B404D0010E020124270001938674
:1005F00081B604D0020E020124270001938881B83D
:1006000004D0040E020124270001938A81BA03D08A
:10061000080E02012427020124C201F00001120089
:100620000900F6CF27F2F7CF28F2F5509EA8FED7A3
:10063000AD6E27C2F6FF28C2F7FF0201262F01D0B8
:1006400002D00001EDD7000112000900F5520DE0C3
:10065000F6CF24F2F7CF25F2F5509EA8FED7AD6E67
:1006600024C2F6FF25C2F7FFF0D7120001010C2BC0
:100670000C510F0801E20C6B0201246B2451050898
:1006800036E3245104080AE32435006E0036FC0EDC
:100690000016C250830B0010C26E06D0280E016EE9
:1006A000C250830B0110C26E0400020E006E002EB9
:1006B000FED700D02451200DF350266B256FD89023
:1006C00001010C35036A02012525016E2651032222
:1006D00001504C0FE96E000E0320EA6EC282C2B2D6
:1006E000FED7C3CFEFFFC4CFECFF242BC7D7000149
:1006F000120002012851016A275D03E227C200F0BF
:100700000CD0006A080E296F273700362851005C8C
:10071000D8B0006E0136292FF7D700011200015022
:1007200025C227F2640E0201286F0001E2DF00C03B
:1007300025F20150300E08E1020126A30ED026B7A3
:100740000CD026B9200E04D00201269726992681C6
:10075000012601509EA8FED7AD6E25C227F20A0ED3
:10076000286F0001C6DF00C025F20150300E08E1FD
:10077000020126B70BD026A109D026B9200E000110
:10078000012601509EA8FED7AD6E0201300E25272E
:1007900025519EA8FED7AD6E00011200020138510E
:1007A000200DF350036A4C0F016E000E032201C0AE
:1007B0003CF203C03DF23A6B396B3B6B3B510F0887
:1007C00011E3D8903B35036A3C25E96E3D51032087
:1007D000EA6EECCF03F0ED52EF50392703503A2385
:1007E0003B2BECD7080E39253E6F000E3A213F6FA8
:1007F0003F31036E3E31026E033202320332023267
:10080000033202320F0E031602C001F003C002F0E1
:1008100000011200EACF2EF2E9CF2DF202012739B2
:10082000F009296F2927E20F2A6F320F2C6F275109
:100830000F0B2A272A272C27E90F2B6F2B272B2773
:1008400026390F0B2B272C272B372C372C1F2C3717
:1008500026510F0B2C272937070E286F0A0E2B075E
:100860002C27FDE32A072B27FDE329072A27FDE391
:1008700028072927FDE3020EEA6E280EE96E070E0F
:100880002D152D9DE9262C0EE95CD8B42D8DEF5049
:10089000006E08E12DBD06D02DB90CD02DB702D0C9
:1008A000200E03D02D872D99300E002600509EA8D3
:1008B000FED7AD6EEE502DADE6D70001120002015D
:1008C0002D6B2CC203F02B51D8B42C072B072E6FA5
:1008D00003C02FF22E5302E12F5332E02AC203F05D
:1008E0002951E96E03C0EAFF2851036E2751272BD7
:1008F000D8B4282B306F03C031F2F2CF32F2F29E1F
:1009000031C2AAFF30C2A9FFA69CA69EA680A8500D
:1009100032BFF28EEF6E2AC203F02951E96E03C096
:10092000EAFFEFCF2EF22DC23FF22EC240F23F512E
:100930004019016E01C02DF2292BD8B42A2BC1D742
:100940002DC201F000018AEF05F002013D6B3CC2AF
:1009500003F03B51D8B43C073B073E6F03C03FF266
:100960003E5302E13F533EE03AC203F03951E96E93
:1009700003C0EAFFEFCF3EF23DC23FF23EC240F27B
:100980003F514019016E01C03DF23851036E37519D
:10099000372BD8B4382B3E6F03C03FF23A51036E69
:1009A0003951392BD8B43A2BE96E03C0EAFFEFCFA7
:1009B00040F23FC2AAFF3EC2A9FF40C2A8FFA69CC8
:1009C000A69EA684F250006EF29E0F01550EA76EF1
:1009D000AA0EA76EA682A6B2FED7A6940050F21267
:1009E0000201B5D73DC201F0000107EF05F0020199
:1009F000366B210E356F386B040E376F36C23AF204
:100A000035C239F23C6B2B0E3B6F00019ED701C003
:100A100034F2AA6A020EA96E34C2A8FFA69CA69E52
:100A2000A684F250006EF29E0F01550EA76EAA0E1C
:100A3000A76EA682A6B2FED7A6940050F2120001BD
:100A40001200960E0101186F196F1A6F1B6F290E95
:100A5000216E410E236E260E256E940E246E276A9B
:100A6000140E266E030E296E890E286E030E2B6E51
:100A7000670E2A6E030E2D6E400E2C6E030E2F6E27
:100A8000120E2E6E020E316EE00E306E020E336EBE
:100A9000AB0E326E020E356E720E346E020E376E73
:100AA000390E366E020E396E386A010E3B6EC90E73
:100AB0003A6E010E3D6E950E3C6E010E3F6E650E58
:100AC0003E6E010E416E390E406E010E436E110EE8
:100AD000426E456AEE0E446E020E476E466A010E85
:100AE000496ECD0E486E010E4B6EBC0E4A6E000173
:100AF0007EDF12000201266B210E256F286B040E8B
:100B0000276F26C22AF225C229F22C6B2B0E2B6FDF
:100B10000001D5D601C024F2F2CF25F2F29EAA6AD6
:100B2000020EA96EA69CA69EA680A850020125BF13
:100B3000F28E245D03E0000184DF02010001C8EFB2
:100B40000DF0A4AA03D090EC01F0FBD79D8A12000F
:100B5000F8DFC60ED56EC00EF212D4EF0DF0010113
:100B60001CB104D0000E016E0AD006D022AF04D012
:100B700024C123F1010E216F1C91010E016E0001B1
:100B8000C3EF09F002012C511F080CE12D514E0852
:100B900009E12E51200806E12F514E0803E1010E14
:100BA000016E2ED02D5102080FE2FF0A03E12C51F5
:100BB000E7080AE22F51030807E303E12E51F40886
:100BC00003E3010E016E1CD02D5106080FE2FF0A4F
:100BD00003E12C51CF080AE22F51090807E303E192
:100BE0002E51D10803E3010E016E0AD02F5306E106
:100BF0002E51340803E3010E016E02D0000E016E87
:100C00000001FFEF09F0A4A8FED7736E0CEF06F009
:100C1000020136510001F7D7196AF2BE198EF29E11
:100C200036C242F29BEC01F019BEF28E0400020EB5
:100C3000006E002EFED70000120001011F691E6920
:100C40001C919D9A0400090E006E002EFED700D064
:100C500034C236F20001DCDF35C236F2D9DF1200D1
:100C6000ACA2FED73FEF06F01FC135F21EC134F231
:100C700035C236F2CDDF34C236F2CADFF1D7040016
:100C8000090E006E002EFED700D05BDF01011F6948
:100C90001E690001120002012B5180092E6F2CC227
:100CA0002FF22AC234F2356F0001C7DF2DC236F2AF
:100CB000AFDFDADF120001010E6B0D6B106B0F6BF3
:100CC000126B116B000144EF08F002013751060866
:100CD00024E2FF0A03E13651CF081FE23751090829
:100CE0001CE303E13651CF0818E3D00E365D386FB0
:100CF000070E3759396FF2CF3AF2F29E39C2AAFF86
:100D000038C2A9FFA69CA69EA680A8503ABFF28E24
:100D1000036A016E0350026EFAD13651006E3751EC
:100D2000036E035006E1120E005C0001D8B4CAD075
:100D30000201035006E1130E005C0001D8B4D5D0C7
:100D40000201035006E1150E005C0001D8B4D8D0B2
:100D50000201035006E1160E005C0001D8B4E3D096
:100D60000201035006E1180E005C0001D8B4E7D080
:100D70000201035006E1190E005C0001D8B4F2D064
:100D80000201035006E11B0E005C0001D8B4F6D04E
:100D90000201035006E11C0E005C0001D8B401D131
:100DA0000201035006E11E0E005C0001D8B406D11A
:100DB0000201035006E11F0E005C0001D8B411D1FE
:100DC0000201035006E1210E005C0001D8B416D1E7
:100DD0000201035006E1220E005C0001D8B421D1CB
:100DE0000201035006E12A0E005C0001D8B426D1AE
:100DF0000201035006E1300E005C0001D8B42BD193
:100E00000201035006E1310E005C0001D8B42BD181
:100E10000201035006E1320E005C0001D8B42BD170
:100E20000201035006E1330E005C0001D8B42BD15F
:100E30000201030E035C06E1E80E005C0001D8B479
:100E400029D10201030E035C06E1E90E005C0001FA
:100E5000D8B428D10201030E035C06E1EA0E005C5F
:100E60000001D8B426D10201030E035C06E1EB0EAB
:100E7000005C0001D8B424D10201030E035C06E13A
:100E8000EC0E005C0001D8B422D10201030E035C19
:100E900006E1ED0E005C0001D8B420D10201030E82
:100EA000035C06E1EE0E005C0001D8B41ED1020125
:100EB000030E035C06E1EF0E005C0001D8B41DD107
:100EC000020121D1D89001010C35036A4C0FE96E63
:100ED000000E0320EA6EECCF03F0ED52EFCF01F0ED
:100EE00003C002F0020113D100010201386B0001BE
:100EF00055DC0150016E0250026E020108D1000162
:100F0000D89001010C35036A6C0FE96E000E0320C6
:100F1000EA6EECCF03F0ED52EF50016E0350026E1B
:100F20000201F5D00001010E0201386F000136DC2C
:100F30000150016E0250026E0201E9D00001D8900A
:100F400001010C35036A8C0FE96E000E0320EA6E76
:100F5000ECCF03F0ED52EF50016E0350026E020130
:100F6000D6D00001020E0201386F000117DC0150DB
:100F7000016E0250026E0201CAD00001D890010138
:100F80000C35036AAC0FE96E000E0320EA6EECCF5D
:100F900003F0ED52EF50016E0350026E0201B7D024
:100FA0000001030E0201386F0001CEEC03F0015086
:100FB000016E0250026E0201AAD00001D890010118
:100FC0000C35036ACC0FE96E000E0320EA6EECCFFD
:100FD00003F0ED52EF50016E0350026E020197D004
:100FE0000001040E0201386F0001CEEC03F0015045
:100FF000016E0250026E02018AD00001D8900101F8
:101000000C35036AEC0FE96E000E0320EA6EECCF9C
:1010100003F0ED52EF50016E0350026E020177D0E3
:101020000001050E0201386F0001CEEC03F0015003
:10103000016E0250026E02016AD0000101011451DA
:10104000036E1351132BD8B4142B016E0350026E90
:1010500002015DD0000101010D51016E0E51026EC1
:10106000020155D0000101010F51016E1051026EB5
:1010700002014DD0000101011151016E1251026EA9
:10108000020145D0000117D6000E016E026E02016A
:101090003ED00001036A2350016E0350026E02012C
:1010A00036D000012450016E2550026E02012FD06F
:1010B0000001500E016E000E026E020128D00001E8
:1010C000570E016E000E026E020121D00001580E73
:1010D000016E000E026E02011AD00001010E016EB7
:1010E000000E026E020113D00001036A2150016E4E
:1010F0000350026E02010BD000012650016E2750F2
:10110000026E020104D0FF0E016E026E00D00001DB
:10111000AEEF08F02BC234F22AC235F28EDDD89041
:1011200002012E35346F2F35356F34C236F200018F
:101130006FDD0201316B306B31512F5D22E303E132
:101140002E51305D1EE230512C25346F31512D214E
:10115000356F376F34C236F20001B7D502C033F2B3
:1011600001C032F233C234F233C236F251DD32C240
:1011700034F232C236F24CDD0201302BD8B4312BBE
:10118000DBD7000171DD20EF0AF0020131510608C2
:1011900032E2FF0A03E13051CF082DE23151090854
:1011A0002AE303E13051CF0826E33351000808E277
:1011B000FF0A03E13251000803E2030E016EA3D0DF
:1011C00031C2AAFF30C2A9FF32C2A8FFA69CA69EC8
:1011D000A684F250006EF29E0F01550EA76EAA0E65
:1011E000A76EA682A6B2FED7A6940050F212000EF9
:1011F000016E020188D0010115531BE0020130513C
:10120000E80809E13151030806E132C223F0000E7B
:10121000016E79D00DD03051E9080AE1315103084F
:1012200007E133C225F032C224F0000E016E6BD00C
:10123000010102013051006E3151036E030E035C57
:1012400005E1EE0E005C00011AE00201070E035CEE
:1012500005E1CE0E005C000122E00201070E035CF6
:1012600005E1CF0E005C000127E002014E0E035C99
:1012700005E11F0E005C00012CE002013FD00201DD
:10128000323D02D0335308E0335303E132517F083B
:1012900003E2030E016E37D032C221F032D00201D8
:1012A000322D02D0335303E0030E016E2CD0000127
:1012B00021EC05F0020125D00201322D02D033537A
:1012C00003E0030E016E1FD00001F7EC04F00201F1
:1012D00018D0020132510A0803E13351070806E031
:1012E0000101156B030E016E02010DD0010E01010B
:1012F000156FC80E1A6F1B6F020103D0020E016E2C
:1013000002D0000E016E000112002CC234F2060E53
:101310000201356F000191DC2EC231F22EC236F28D
:1013200077DC2DC231F22DC236F272DC30C231F2DE
:1013300030C236F26DDC2FC231F22FC236F268DCD9
:1013400093DC59EF0AF02AC234F2100E0201356F15
:10135000000173DC2CC22FF22CC236F259DC2BC2F6
:101360002FF22BC236F254DC2EC22FF22EC236F2EE
:101370004FDC2DC22FF22DC236F24ADC75DCBBEFFA
:101380000AF0AFEF05F00152D8B414D1213C01D0DE
:1013900006D021500101205DD8A401D10001010136
:1013A0000D3D03D00E3D01D003D00D2BD8B40E2B34
:1013B000140E1A6F2251030A000108E0070A06E022
:1013C000020A40E0160AD8B476D0D7D024C125F25C
:1013D00025C124F226C127F227C126F20201265197
:1013E00024252A6F275125212B6F25C22DF224C2D7
:1013F0002CF22F6F2AC22EF20001C2EF05F001522B
:1014000012E120C12AF202012C6B22C12BF2020E42
:101410002D6F000140DC0101126B020E116F640E92
:101420001B6F0FD0000122C12AF220C12BF225C26E
:101430002DF224C22CF227C22FF226C22EF26AD637
:101440000101ACD024C125F225C124F226C12BF222
:1014500027C12AF225C231F224C230F226C133F26A
:1014600027C132F292DE01C028F20201285311E0B6
:1014700020C12AF22C6B22C12BF228C22DF20001CE
:101480000ADC0101126B28C211F1640E1B6F12D02D
:10149000020126C12BF227C12AF220C12CF225C25B
:1014A0002EF224C22DF226C130F227C12FF2000104
:1014B0002CD7010173D024C125F225C124F226C105
:1014C00027F227C126F20201296B275303E1265197
:1014D000295D43E2295124252A6F000E25212B6F17
:1014E000D8902935050F240FE96E010EEA6ED8B0A9
:1014F000EA2AEFCF2CF2D8902935060F240FE96E97
:10150000010EEA6ED8B0EA2AEFCF2DF22CC22FF2EC
:101510002DC22EF22BC231F22AC230F22CC233F28B
:101520002DC232F2000131DE01C028F2020128533F
:1015300012E020C12AF22C6B22C12BF228C22DF21C
:1015400000014BEC06F00101126B28C211F1640E90
:101550001B6F020102D0292BB8D728530CE120C100
:101560002AF225C22CF224C22BF227C22EF226C266
:101570002DF20001E8D6010111D020C12AF20201AA
:101580002C6B22C12BF2010E2D6F00014BEC06F0EB
:101590000101126B010E116F640E1B6F0BD00F3D1A
:1015A00003D0103D01D003D00F2BD8B4102B140E54
:1015B0001A6F1B6F0001E3EF0DF0F86AD09E078EE3
:1015C000EA6AE96A500ED36E9B9C9B9E206AB8968D
:1015D000190EAF6EA60EAC6E900EAB6E7096190E15
:1015E000756EA60E726E900E716E01011C911D6BD0
:1015F000C150F00BC16E000E0F01386F3C6F396F98
:101600003A6F3B6F776A786A796A1A6A1B6AD050B8
:101610000F0BD0A8000ED080D082D088D886D88872
:101620000101166F0001A1EF02F0E7EC02F001C02A
:1016300017F1929C899C929E898E0A0E0201256F59
:101640000001CFEC02F0CC0EF66E030EF76E100E1A
:101650000201266F000110EC03F0E20EF66E030E9D
:10166000F76E25EC03F00D0E9EA8FED7AD6E0A0EA8
:101670009EA8FED7AD6E0201236B23511108D8A09E
:101680001CD2000136EC03F0E7EC02F001C024F2BA
:10169000EC0EF66E030EF76E040E0201266F0001CB
:1016A00010EC03F023C225F21B0E0201266F00018D
:1016B0008FEC03F0F20EF66E030EF76E040E0201CD
:1016C000266F000110EC03F024C225F21B0E02016C
:1016D000266F00018FEC03F0200E9EA8FED7AD6EA2
:1016E000FA0EF66E030EF76E25EC03F00201386B6E
:1016F0000001CEEC03F002C025F201C024F2FE0E80
:10170000F66E030EF76E050E0201266F000110EC57
:1017100003F0090EE96E25C227F224C226F20AEC74
:1017200004F0200E9EA8FED7AD6E010E0201386FA8
:101730000001CEEC03F002C025F201C024F20A0E33
:10174000F66E040EF76E050E0201266F000110EC16
:1017500003F0090EE96E25C227F224C226F20AEC34
:1017600004F0200E9EA8FED7AD6E020E0201386F67
:101770000001CEEC03F002C025F201C024F2160EE7
:10178000F66E040EF76E050E0201266F000110ECD6
:1017900003F0090EE96E25C227F224C226F20AECF4
:1017A00004F0200E9EA8FED7AD6E030E0201386F26
:1017B0000001CEEC03F002C025F201C024F2220E9B
:1017C000F66E040EF76E050E0201266F000110EC96
:1017D00003F0090EE96E25C227F224C226F20AECB4
:1017E00004F0200E9EA8FED7AD6E040E0201386FE5
:1017F0000001CEEC03F002C025F201C024F22E0E4F
:10180000F66E040EF76E050E0201266F000110EC55
:1018100003F0090EE96E25C227F224C226F20AEC73
:1018200004F0200E9EA8FED7AD6E050E0201386FA3
:101830000001CEEC03F002C025F201C024F23A0E02
:10184000F66E040EF76E050E0201266F000110EC15
:1018500003F0090EE96E25C227F224C226F20AEC33
:1018600004F0200E9EA8FED7AD6E460EF66E040E56
:10187000F76E25EC03F0000E016EC250830B0110D1
:10188000C26E0400020E006E002EFED700D0C2828F
:10189000C2B2FED7C4CF25F20201C3CF24F2560E46
:1018A000F66E040EF76E050E266F000110EC03F0C5
:1018B000090EE96E25C227F224C226F20AEC04F0D2
:1018C000200E9EA8FED7AD6E040E016EC250830B93
:1018D0000110C26E0400020E006E002EFED700D072
:1018E000C282C2B2FED7C4CF25F20201C3CF24F216
:1018F000620EF66E040EF76E050E266F000110ECF8
:1019000003F0090EE96E25C227F224C226F20AEC82
:1019100004F0200E9EA8FED7AD6E080E016EC250D8
:10192000830B0110C26E0400020E006E002EFED763
:1019300000D0C282C2B2FED7C4CF25F20201C3CF0B
:1019400024F26E0EF66E040EF76E050E266F000181
:1019500010EC03F0090EE96E25C227F224C226F22C
:101960000AEC04F0200E9EA8FED7AD6E0C0E016EA0
:10197000C250830B0110C26E0400020E006E002ED6
:10198000FED700D0C282C2B2FED7C4CF25F2020178
:10199000C3CF24F27A0EF66E040EF76E050E266F94
:1019A000000110EC03F0090EE96E25C227F224C2F3
:1019B00026F20AEC04F0200E9EA8FED7AD6E100EA3
:1019C000016EC250830B0110C26E0400020E006E45
:1019D000002EFED700D0C282C2B2FED7C4CF25F2FD
:1019E0000201C3CF24F2860EF66E040EF76E050ECA
:1019F000266F000110EC03F0090EE96E25C227F2F4
:101A000024C226F20AEC04F0200E9EA8FED7AD6E8A
:101A1000280E016EC250830B0110C26E0400020E2C
:101A2000006E002EFED700D0C282C2B2FED7C4CF55
:101A300025F20201C3CF24F2920EF66E040EF76E69
:101A4000050E266F000110EC03F0090EE96E25C2A9
:101A500027F224C226F20AEC04F0200E9EA8FED73C
:101A6000AD6E9E0EF66E040EF76E25EC03F09384B9
:101A700081B402D08B9001D08B809490938681B6F4
:101A800002D08B9201D08B829492938881B802D03D
:101A90008B9801D08B889498938A81BA02D08B9AC4
:101AA00001D08B8A949A640E0201256F0001CFEC5D
:101AB00002F004000201232BE0D5B00EF66E040EF6
:101AC000F76E120E266F000110EC03F016C125F21E
:101AD0001B0E0201266F00018FEC03F0200E9EA862
:101AE000FED7AD6E01011651070A00010DE00C0A88
:101AF00012E0040A17E0030A1CE0020A21E00D0AC2
:101B000026E0030A2BE031D0C60EF66E040EF76E07
:101B100025EC03F030D0D20EF66E040EF76E25ECF5
:101B200003F029D0E20EF66E040EF76E25EC03F0FA
:101B300022D0F00EF66E040EF76E25EC03F01BD0EB
:101B4000000EF66E050EF76E25EC03F014D0120EA3
:101B5000F66E050EF76E25EC03F00DD0220EF66E34
:101B6000050EF76E25EC03F006D0340EF66E050E6A
:101B7000F76E25EC03F03E0EF66E050EF76E25ECC3
:101B800003F0929C898C929E899E03007AEF05F067
:101B9000213C01D005D021507F0802E221EC05F064
:101BA000AB8EAB88A8EF05F00201236B23511D0813
:101BB00006E3000136EC03F00201232BF7D7040003
:0C1BC0000001C1EF09F00201FAD7030098
:0200000400F00A
:08000000FF00FF00FF00FF00FC
:020000040030CA
:0E0000000028062F003F81000FC00FE00F40C8
:00000001FF
;PIC18F26K22
;CRC=AD3A  CREATED="10-Nov-15 12:12"
