:04000000DAEF03F040
:08000800046ED8CF05F0E0CF33
:1000100006F00001E9CF0CF0EACF07F0E1CF08F0DD
:10002000E2CF09F0D9CF0AF0DACF0BF0F3CF12F01C
:10003000F4CF13F0FACF14F0F5CF15F0F6CF16F099
:10004000F7CF17F000C00EF001C00FF002C010F0A3
:1000500003C011F0F2AA30EF00F0F2B477EF01F034
:10006000A3AA36EF00F0A4BAB3EF01F00EC000F07F
:100070000FC001F010C002F011C003F00CC0E9FF86
:1000800007C0EAFF078E08C0E1FF09C0E2FF0AC00F
:10009000D9FF0BC0DAFF12C0F3FF13C0F4FF14C086
:1000A000FAFF15C0F5FF16C0F6FF17C0F7FF0450A2
:1000B00006C0E0FF05C0D8FF1000F76ACA0FF66E51
:1000C000000EF7220900F550120000C1814001C066
:1000D000804101C0804100C1814001C0804100C118
:1000E000814000C1814001C0804101C0804100C108
:1000F000814000C1814001C0804100C1814001C0F8
:10010000804101C0804100C1814001C0804100C1E7
:10011000814000C1814001C0804100C1814001C0D7
:10012000804101C0804100C1814000C1814001C0C7
:10013000804101C0804100C1814001C0804100C1B7
:10014000814000C1814001C0804101C0804100C1A7
:10015000814000C1814001C0804100C1814001C097
:10016000804101C0804100C1814000C1814001C087
:10017000804101C0804100C1814001C0804100C177
:10018000814000C1814001C0804100C1814001C067
:10019000804101C0804100C1814001C0804100C157
:1001A000814000C1814001C0804101C0804100C147
:1001B000814000C1814001C0804100C1814001C037
:1001C000804101C0804100C18140F76ADA0FF66EBC
:1001D000010EF7220900F550120000C0C101C3034F
:1001E00002C2C60607C705C5C404CC0C0DCD0FCF8F
:1001F000CE0E0ACACB0BC90908C8D81819D91BDBFF
:10020000DA1A1EDEDF1FDD1D1CDC14D4D515D7174E
:1002100016D6D21213D311D1D010F03031F133F3FE
:10022000F23236F6F737F53534F43CFCFD3DFF3F4E
:100230003EFEFA3A3BFB39F9F83828E8E929EB2B7E
:100240002AEAEE2E2FEF2DEDEC2CE42425E527E70E
:10025000E62622E2E323E12120E0A06061A163A37E
:10026000A26266A6A767A56564A46CACAD6DAF6F0E
:100270006EAEAA6A6BAB69A9A86878B8B979BB7B7E
:100280007ABABE7E7FBF7DBDBC7CB47475B577B7CE
:10029000B67672B2B373B17170B0509091519353FE
:1002A000529296565797559594549C5C5D9D5F9FCE
:1002B0009E5E5A9A9B5B99595898884849894B8BFE
:1002C0008A4A4E8E8F4F8D4D4C8C4484854587478E
:1002D00046868242438341818040F29A020137532D
:1002E00004E0D76AD66AF294F28A00011200010192
:1002F000265102080AE1275308E1285306E125B1F7
:1003000004D0020E2A5F258101D025912869276932
:10031000266B0201376B0001E0DFF29436EF00F04C
:10032000A4AAFED771CF1FF074CF01F01FA202D094
:1003300071987188B4EF01F0010128510201371959
:10034000386F036A38510001B8DE016E0101275190
:100350000118286F036A02013851000136DFE8CF27
:1003600027F1DEEF01F0DCD701C036F2010125B143
:100370002BD0265308E12869276936C229F1262B9C
:100380002A6B2C6B17D0262D04D036C22BF1262BCE
:1003900011D0265102080EE12A3D02D0FE0E2A6F2E
:1003A0002D0E2A25E96E010EEA6ED8B0EA2A36C271
:1003B000EFFF2A2B36C237F20001BED7010E020131
:1003C000376F00018ADF0101A49A000136EF00F0C7
:1003D000500ED36E9B9C9B9ED180C050C00B0709D2
:1003E000C06EC08EC280C150F00BC16E2F0E0F01C7
:1003F000386F000E3C6F020E396F000E3A6F3B6F84
:10040000C08E416B426BC66A0101216B226B236B6C
:10041000246B0D6B0C6B0F6B0E6B116B106B136BF6
:10042000126B0B6B146B000111EF04F0290E206EA0
:10043000410E226E260E246E940E236E266A140E32
:10044000256E030E286E890E276E030E2A6E670E28
:10045000296E030E2C6E400E2B6E030E2E6E120EA6
:100460002D6E020E306EE00E2F6E020E326EAB0E4F
:10047000316E020E346E720E336E020E366E390E0F
:10048000356E020E386E376A010E3A6EC90E396E3D
:10049000010E3C6E950E3B6E010E3E6E650E3D6E7E
:1004A000010E406E390E3F6E010E426E110E416E0E
:1004B000446AEE0E436E020E466E456A010E486EA9
:1004C0008B0E476E010E4A6E7C0E496E14EF04F0DF
:1004D0000201326B316B3035006E0036FC0E0016B7
:1004E000C250830B0010C26E0400020E006E002E7C
:1004F000FED700D0336B33510F0809E3C282C2B27A
:10050000FED7C3503127C4503223332BF4D7080E03
:100510003125346F000E3221356F3531036E3431A1
:10052000026E0332023203320232033202320F0E03
:10053000031602C001F003C002F000011200020E17
:10054000EA6E310EE96EEF5011E0010E016EBF0E42
:10055000006E0400002EFDD7012EF9D74A0E006E62
:10056000002EFED700000400EF2EEFD71200949665
:100570008B9694948B84640E0201316F0001DFDF4F
:1005800094968B8694948B84F2CF30F2F29EAA6A72
:10059000A96AA69CA69EA680A850020130BFF28E32
:1005A000010816E0AA6AA96A010EA86EA69CA69E7A
:1005B000A684F250006EF29E0F01550EA76EAA0E91
:1005C000A76EA682A6B2FED7A6940050F212020130
:1005D000000129EF04F00201306B3C0E616EF19EC8
:1005E000010E316F0001ABDF938481B404D0010EA2
:1005F000020130270001938681B604D0020E020169
:1006000030270001938881B804D0040E02013027FE
:100610000001938A81BA03D0080E0201302702013B
:1006200030C201F000012AEF04F09EA8FED7AD6EA3
:100630001200929C899C929E898E0A0E0201316F53
:1006400000017DDF02013051020805E1020E0001C8
:10065000ECDF04D00201010E0001E7DF050EE5DF4B
:10066000000EE3DF010EE1DF000EDFDF000EDDDF55
:100670009C0EDBDF02013051020805E1390E00015A
:10068000D4DF04D002010A0E0001CFDF0A0E0201FE
:10069000316F000154DF929C898C929E899E1200DA
:1006A000929C899C929E898E0A0E0201316F0001F4
:1006B00046DF02013051020805E1020E0001B5DFFC
:1006C00004D00201010E0001B0DF050EAEDF000E06
:1006D000ACDF010EAADFFF0EA8DF000EA6DFDD0EE5
:1006E000A4DF02013051020805E1C90E00019DDFBF
:1006F00004D00201FA0E000198DF0A0E0201316FE8
:1007000000011DDF929C898C929E899E1200949A12
:100710008B8A020E0201306F00018BDF010E020195
:10072000306F0001BDDF949A8B9AACEF04F0949285
:100730008B82010E0201306F00017BDF020E02018D
:10074000306F0001ADDF94928B92B0EF04F0F2CFE6
:1007500030F2F29EAA6AA96AA69CA69EA680A8501C
:10076000020130BFF28E000A01E121D094968B86FF
:1007700094948B94640E316F0001E1DE94968B8625
:1007800094948B84AA6AA96AA86AA69CA69EA68449
:10079000F250006EF29E0F01550EA76EAA0EA76EC4
:1007A000A682A6B2FED7A6940050F2120201000162
:1007B000BBEF04F0F86AD09E078EEA6AE96A500E31
:1007C000D36E9B9C9B9E1F6AB896190EAF6EA60EA9
:1007D000AC6E900EAB6E7096190E756EA60E726EA4
:1007E000900E716E01012591266BC150F00BC16E08
:1007F000000E0F01386F3C6F396F3A6F3B6F776AAD
:10080000786A796A196A1A6AD0500F0BD0A8000E5C
:10081000D080D082D088D886D8880101156F000199
:10082000D7D594908B8002D6040E0201306F000160
:100830004FDE02C02DF201C02CF2485002012D5DA6
:10084000D8A090D004E12C51475CD8B08BD00001E7
:100850008ED6C1D601C016F1D89001011635036AB3
:10086000270FE96E000E0320EA6EECCF03F0ED5285
:10087000EFCF2EF2020103C02FF2030E306F000102
:1008800027DE02C018F101C017F1020E0201306F1D
:1008900000011EDE02C01AF101C019F1010E0201B1
:1008A000306F000115DE02C01CF101C01BF1020116
:1008B000306B00010DDE02C01EF101C01DF10A0EF9
:1008C0000201306F000104DE02C020F101C01FF1FF
:1008D0000101185102012F5D08E33CE12E51010195
:1008E000175DD8B002D0020135D001011A510201C2
:1008F0002F5D08E32FE12E510101195DD8B002D020
:10090000020128D001011C5102012F5D08E322E100
:100910002E5101011B5DD8B002D002011BD0010194
:100920001E5102012F5D08E315E12E5101011D5DED
:10093000D8B002D002010ED00101205102012F5D7A
:100940000DE308E12E5101011F5DD8A002D0020184
:1009500005D002010001DBD603D002010001E7D679
:100960000AD002012D514A5C07E303E149502C5D96
:1009700003E20001ECD6020194908B900300030087
:0200000400F00A
:08000000FF00FF00FF00FF00FC
:020000040030CA
:0E00000000280627003F81000FC00FE00F40D0
:00000001FF
;PIC18F26K22
;CRC=A75C  CREATED="10-Nov-15 15:14"
