:040000008BEF04F08E
:08000800046ED8CF05F0E0CF33
:1000100006F00001E9CF0CF0EACF07F0E1CF08F0DD
:10002000E2CF09F0D9CF0AF0DACF0BF0F3CF12F01C
:10003000F4CF13F0FACF14F0F5CF15F0F6CF16F099
:10004000F7CF17F000C00EF001C00FF002C010F0A3
:1000500003C011F0F2AA30EF00F0F2B477EF01F034
:10006000A3AA36EF00F0A4BAB3EF01F00EC000F07F
:100070000FC001F010C002F011C003F00CC0E9FF86
:1000800007C0EAFF078E08C0E1FF09C0E2FF0AC00F
:10009000D9FF0BC0DAFF12C0F3FF13C0F4FF14C086
:1000A000FAFF15C0F5FF16C0F6FF17C0F7FF0450A2
:1000B00006C0E0FF05C0D8FF1000F76ACA0FF66E51
:1000C000000EF7220900F550120000C1814001C066
:1000D000804101C0804100C1814001C0804100C118
:1000E000814000C1814001C0804101C0804100C108
:1000F000814000C1814001C0804100C1814001C0F8
:10010000804101C0804100C1814001C0804100C1E7
:10011000814000C1814001C0804100C1814001C0D7
:10012000804101C0804100C1814000C1814001C0C7
:10013000804101C0804100C1814001C0804100C1B7
:10014000814000C1814001C0804101C0804100C1A7
:10015000814000C1814001C0804100C1814001C097
:10016000804101C0804100C1814000C1814001C087
:10017000804101C0804100C1814001C0804100C177
:10018000814000C1814001C0804100C1814001C067
:10019000804101C0804100C1814001C0804100C157
:1001A000814000C1814001C0804101C0804100C147
:1001B000814000C1814001C0804100C1814001C037
:1001C000804101C0804100C18140F76ADA0FF66EBC
:1001D000010EF7220900F550120000C0C101C3034F
:1001E00002C2C60607C705C5C404CC0C0DCD0FCF8F
:1001F000CE0E0ACACB0BC90908C8D81819D91BDBFF
:10020000DA1A1EDEDF1FDD1D1CDC14D4D515D7174E
:1002100016D6D21213D311D1D010F03031F133F3FE
:10022000F23236F6F737F53534F43CFCFD3DFF3F4E
:100230003EFEFA3A3BFB39F9F83828E8E929EB2B7E
:100240002AEAEE2E2FEF2DEDEC2CE42425E527E70E
:10025000E62622E2E323E12120E0A06061A163A37E
:10026000A26266A6A767A56564A46CACAD6DAF6F0E
:100270006EAEAA6A6BAB69A9A86878B8B979BB7B7E
:100280007ABABE7E7FBF7DBDBC7CB47475B577B7CE
:10029000B67672B2B373B17170B0509091519353FE
:1002A000529296565797559594549C5C5D9D5F9FCE
:1002B0009E5E5A9A9B5B99595898884849894B8BFE
:1002C0008A4A4E8E8F4F8D4D4C8C4484854587478E
:1002D00046868242438341818040F29A0201315333
:1002E00004E0D76AD66AF294F28A00011200010192
:1002F0001C5102080AE11D5308E11E5306E11BB11F
:1003000004D0020E205F1B8101D01B911E691D6964
:100310001C6B0201316B0001E0DFF29436EF00F05C
:10032000A4AAFED771CF1FF074CF01F01FA202D094
:1003300071987188B4EF01F001011E510201311969
:10034000326F036A32510001B8DE016E01011D51A6
:1003500001181E6F036A02013251000136DFE8CF37
:100360001DF1DEEF01F0DCD701C030F201011BB15D
:100370002BD01C5308E11E691D6930C21FF11C2BD4
:10038000206B226B17D01C2D04D030C221F11C2B06
:1003900011D01C5102080EE1203D02D0FE0E206F4C
:1003A000230E2025E96E010EEA6ED8B0EA2A30C28B
:1003B000EFFF202B30C231F20001BED7010E020147
:1003C000316F00018ADF0101A49A000136EF00F0CD
:1003D000232064756D70696E6720746F20696E7478
:1003E00065726E616C0D0A00232064756D70696E14
:1003F0006720746F2065787465726E616C0D0A00F9
:10040000232074735453656C6563746F722E63207C
:1004100025730D0A000031302D4E6F762D313500D9
:100420002320636F6E6669672E765F636F6E7461FB
:1004300063746F725F6F6E5F61626F76653D256C8E
:10044000750D0A002320636F6E6669672E765F6301
:100450006F6E746163746F725F6F66665F62656C06
:100460006F773D256C750D0A000023206164633DA4
:10047000256C750D0A002320726F746172795377B1
:100480006974636856616C75653D257520745365A4
:10049000743D256C750D0A00500ED36E9B9C9B9E7F
:1004A000D180C050C00B0709C06EC08EC280C15041
:1004B000F00BC16E2F0E0F01386F000E3C6F020E55
:1004C000396F000E3A6F3B6FC08E416B426BC66A4C
:1004D0000101176B186B196B1A6B0D6B0C6B0F6BA3
:1004E0000E6B116B106B136B126B0B6B146B0001AB
:1004F000C2EF04F0290E206E410E226E260E246EED
:10050000940E236E266A140E256E030E286E890E35
:10051000276E030E2A6E670E296E030E2C6E400E98
:100520002B6E030E2E6E120E2D6E020E306EE00E2E
:100530002F6E020E326EAB0E316E020E346E720EE4
:10054000336E020E366E390E356E020E386E376A15
:10055000010E3A6EC90E396E010E3C6E950E3B6E61
:10056000010E3E6E650E3D6E010E406E390E3F6E01
:10057000010E426E110E416E446AEE0E436E020E83
:10058000466E456A010E486E8B0E476E010E4A6E2E
:100590007C0E496EC5EF04F0020EEA6E280EE96E7D
:1005A000EF5011E0010E016EBF0E006E0400002E30
:1005B000FDD7012EF9D74A0E006E002EFED700009F
:1005C0000400EF2EEFD712000900F6CF28F2F7CF84
:1005D00029F2F5509EA8FED7AD6E28C2F6FF29C2BB
:1005E000F7FF0201272F01D002D00001EDD7000153
:1005F00012000900F5520DE0F6CF27F2F7CF28F2EE
:10060000F5509EA8FED7AD6E27C2F6FF28C2F7FFB1
:10061000F0D71200EACF2FF2E9CF2EF202012839EB
:10062000F0092A6F2A27E20F2B6F320F2D6F285106
:100630000F0B2B272B272D27E90F2C6F2C272C276F
:1006400027390F0B2C272D272C372D372D1F2D3712
:1006500027510F0B2D272A37070E296F0A0E2C075B
:100660002D27FDE32B072C27FDE32A072B27FDE38E
:1006700029072A27FDE3020EEA6E290EE96E070E0E
:100680002E152E9DE9262D0EE95CD8B42E8DEF5047
:10069000006E08E12EBD06D02EB90CD02EB702D0C8
:1006A000200E03D02E872E99300E002600509EA8D3
:1006B000FED7AD6EEE502EADE6D70001120002015E
:1006C000296B286B2735006E0036FC0E0016C250D1
:1006D000830B0010C26E0400020E006E002EFED7C7
:1006E00000D02A6B2A510F0809E3C282C2B2FED79A
:1006F000C3502827C45029232A2BF4D7080E2825B5
:100700002B6F000E29212C6F2C31036E2B31026EC2
:100710000332023203320232033202320F0E031668
:1007200002C001F003C002F00001120094968B9603
:1007300094948B84640E0201286F00012DDF94963F
:100740008B8694948B84F2CF27F2F29EAA6AA96AD0
:10075000A69CA69EA680A850020127BFF28E010883
:1007600016E0AA6AA96A010EA86EA69CA69EA68497
:10077000F250006EF29E0F01550EA76EAA0EA76EE4
:10078000A682A6B2FED7A6940050F2120201000182
:1007900041EF05F00201276B3C0E616EF19E010EE8
:1007A000286F0001F9DE938481B404D0010E0201A8
:1007B00027270001938681B604D0020E0201272765
:1007C0000001938881B804D0040E0201272700019C
:1007D000938A81BA03D0080E02012727020127C29B
:1007E00001F0000146EF05F002012A51016A295D7E
:1007F00003E229C200F00CD0006A080E2B6F2937E3
:1008000000362A51005CD8B0006E01362B2FF7D786
:1008100000011200015027C229F2640E02012A6F62
:100820000001E2DF00C027F20150300E08E10201B2
:1008300028A30ED028B70CD028B9200E04D002016E
:10084000289728992881012601509EA8FED7AD6ED1
:1008500027C229F20A0E2A6F0001C6DF00C027F264
:100860000150300E08E1020128B70BD028A109D0B1
:1008700028B9200E0001012601509EA8FED7AD6EBA
:100880000201300E272727519EA8FED7AD6E00012A
:1008900068EF05F0E80EF66E030EF76EAADED2EFF3
:1008A00005F0D00EF66E030EF76EA3DED6EF05F060
:1008B000F2CF27F2F29EAA6AA96AA69CA69EA680FB
:1008C000A850020127BFF28E000A01E121D09496C0
:1008D0008B8694948B94640E286F00015DDE949651
:1008E0008B8694948B84AA6AA96AA86AA69CA69E01
:1008F000A684F250006EF29E0F01550EA76EAA0E4E
:10090000A76EA682A6B2FED7A6940050F2120201EC
:100910000001E1EF05F0F86AD09E078EEA6AE96A05
:10092000500ED36E9B9C9B9E1F6AB896190EAF6E9D
:10093000A60EAC6E900EAB6E7096190E756EA60E6E
:10094000726E900E716E01011B911C6BC150F00B09
:10095000C16E000E0F01386F3C6F396F3A6F3B6FFD
:10096000776A786A796A196A1A6AD0500F0BD0A828
:10097000000ED080D082D088D886D8880101156F2B
:1009800000018AD594908B80B5D5929C899C929ECB
:10099000898E0A0E0201286F0001FEDD000EF66E40
:1009A000040EF76E100E0201276F00010DDE160E09
:1009B000F66E040EF76E1DDE0D0E9EA8FED7AD6E10
:1009C0000A0E9EA8FED7AD6E200EF66E040EF76ED0
:1009D0001E0E0201276F0001F7DD100EE96E48C000
:1009E00028F247C027F216DE0D0E9EA8FED7AD6E88
:1009F0000A0E9EA8FED7AD6E440EF66E040EF76E7C
:100A00001F0E0201276F0001DFDD100EE96E4AC0E4
:100A100028F249C027F2FEDD0D0E9EA8FED7AD6E6E
:100A20000A0E9EA8FED7AD6E040E0201276F0001CC
:100A300046DE02C024F201C023F26A0EF66E040EF6
:100A4000F76E060E0201276F0001BEDD100EE96E83
:100A500024C228F223C227F2DDDD0D0E9EA8FED7A8
:100A6000AD6E0A0E9EA8FED7AD6E48500201245D01
:100A7000D8A09ED004E12351475CD8B099D00001A2
:100A800055D694928B82949A8B9A84D601C016F193
:100A9000D89001011635036A270FE96E000E032076
:100AA000EA6EECCF03F0ED52EFCF25F2020103C066
:100AB00026F2760EF66E040EF76E140E276F000106
:100AC00083DD16C127F21B0E0201286F0001A2D69A
:100AD0008C0EF66E040EF76E060E0201276F0001F3
:100AE00073DD100EE96E26C228F225C227F292DDD0
:100AF0000D0E9EA8FED7AD6E0A0E9EA8FED7AD6E57
:100B00000A0E0201276F0001DADD02C028F201C0DF
:100B100027F202010250265D04E342E12551275DE0
:100B20003FE3030E276F0001CADD02C028F201C0B7
:100B300027F202010250265D04E332E12551275DD0
:100B40002FE3020E276F0001BADD02C028F201C0B8
:100B500027F202010250265D04E322E12551275DC0
:100B60001FE3010E276F0001AADD02C028F201C0B9
:100B700027F202010250265D04E312E12551275DB0
:100B80000FE3276B00019BDD02C028F201C027F2B2
:100B900002012651025C08E303E12751255D04E2CE
:100BA000000178D603D0020100017BD614D00201E7
:100BB00024514A5C0CE303E14950235D08E2000143
:100BC00077D6949A8B8A94928B9205D00201949A4C
:100BD0008B8A94928B820A0E0201286F0001DCDC62
:100BE000929C898C929E899E94908B900300030026
:0200000400F00A
:08000000FF00FF00FF00FF00FC
:020000040030CA
:0E00000000280627003F81000FC00FE00F40D0
:00000001FF
;PIC18F26K22
;CRC=6370  CREATED="10-Nov-15 14:57"
