:10000000B3EF04F02320636F6E746163746F725FEB
:100010006F666620726561645F656570726F6D28DA
:1000200045455F434F4E544143544F525F535441F3
:100030005445293D25750D0A00002D2D2D3E2063C8
:100040006F6E746163746F725F6F666628292065D6
:100050006E657267697A696E6720636F696C202EBE
:100060002E2E000020646F6E650D0A002320636F42
:100070006E746163746F725F6F6E20726561645F2E
:10008000656570726F6D2845455F434F4E5441431F
:10009000544F525F5354415445293D25750D0A0074
:1000A0002D2D2D3E20636F6E746163746F725F6FD0
:1000B0006E282920656E657267697A696E672063AC
:1000C0006F696C202E2E2E0020646F6E650D0A0065
:1000D0002320636F6E746163746F725F6F6E20773D
:1000E000726F7465203120746F2045455F434F4E19
:1000F000544143544F525F535441544520726561FB
:10010000645F656570726F6D2845455F434F4E545F
:100110004143544F525F5354415445293D25750D79
:100120000A00232064756D70696E6720746F206902
:100130006E7465726E616C0D0A00232064756D70BB
:10014000696E6720746F2065787465726E616C0DDE
:100150000A000D0A0D0A232074735453656C6563FD
:10016000746F722E632025730D0A000031332D4EFB
:100170006F762D3135002320726573746172745F60
:10018000636175736528293D257520005744545FC8
:1001900054494D454F5554004D434C525F46524FC4
:1001A0004D5F534C454550004D434C525F46524FB6
:1001B0004D5F52554E004E4F524D414C5F504F5780
:1001C00045525F55500042524F574E4F55545F5263
:1001D00045535441525400005744545F46524F4DCA
:1001E0005F534C454550000052455345545F494EBE
:1001F000535452554354494F4E00756E6B6E6F7792
:100200006E2100000D0A00002320636F6E6669678F
:100210002E765F636F6E746163746F725F6F6E5F73
:1002200061626F76653D256C750D0A002320636F52
:100230006E6669672E765F636F6E746163746F724A
:100240005F6F66665F62656C6F773D256C750D0A42
:1002500000002320696E70757420766F6C7461677E
:1002600065206164633D256C750D0A002320726F63
:100270007461727953776974636856616C75653D12
:10028000257520745365743D256C750D0A00232077
:100290005B305D3D256C75205B315D3D256C7520C7
:1002A0005B325D3D256C75205B335D3D256C7520B3
:1002B0005B345D3D256C750D0A00500ED36E9B9C22
:1002C0009B9ED180C050C00B0109C06EC08EC28001
:1002D000C150F00BC16E2F0E0F01386F000E3C6F36
:1002E000020E396F000E3A6F3B6FC08E416B426B4E
:1002F000C66A01010C6B0D6B0E6B0F6B0001F86B86
:10030000F76BFA6BF96BFC6BFB6BFE6BFD6BF66BC3
:10031000FF6BE7EF04F0290E0B6E410E0D6E260EFB
:100320000F6E940E0E6E116A140E106E030E136E85
:10033000890E126E030E156E670E146E030E176E85
:10034000400E166E030E196E120E186E020E1B6E04
:10035000E00E1A6E020E1D6EAB0E1C6E020E1F6EAC
:10036000720E1E6E020E216E390E206E020E236E6C
:10037000226A010E256EC90E246E010E276E950E9F
:10038000266E010E296E650E286E010E2B6E390E3B
:100390002A6E010E2D6E110E2C6E2F6AEE0E2E6E31
:1003A000020E316E306A010E336E8B0E326E010E0C
:1003B000356E7C0E346EEAEF04F0010EEA6E150E17
:1003C000E96EEF5011E0010E016EBF0E006E0400E9
:1003D000002EFDD7012EF9D74A0E006E002EFED753
:1003E00000000400EF2EEFD712000900F6CF17F13E
:1003F000F7CF18F1F5509EA8FED7AD6E17C1F6FFE6
:1004000018C1F7FF0101162F01D002D00001EDD76E
:10041000000112000900F5520DE0F6CF14F1F7CFFC
:1004200015F1F5509EA8FED7AD6E14C1F6FF15C1AB
:10043000F7FFF0D7120001011951016A185D03E2BC
:1004400018C100F00CD0006A080E1A6F1837003679
:100450001951005CD8B0006E01361A2FF7D7000191
:100460001200015016C118F1640E0101196F00014C
:10047000E2DF00C016F10150300E08E1010117A3C0
:100480000ED017B70CD017B9200E04D00101179762
:1004900017991781012601509EA8FED7AD6E16C18F
:1004A00018F10A0E196F0001C6DF00C016F10150E5
:1004B000300E08E1010117B70BD017A109D017B909
:1004C000200E0001012601509EA8FED7AD6E01014D
:1004D000300E162716519EA8FED7AD6E00011200F1
:1004E000EACF1CF1E9CF1BF101011539F009176FB3
:1004F0001727E20F186F320F1A6F15510F0B1827BD
:1005000018271A27E90F196F1927192714390F0B04
:1005100019271A2719371A371A1F1A3714510F0BB0
:100520001A271737070E166F0A0E19071A27FDE349
:1005300018071927FDE317071827FDE316071727E4
:10054000FDE3010EEA6E160EE96E070E1B151B9DEC
:10055000E9261A0EE95CD8B41B8DEF50006E08E155
:100560001BBD06D01BB90CD01BB702D0200E03D088
:100570001B871B99300E002600509EA8FED7AD6E3B
:10058000EE501BADE6D7000112000101166B156B92
:100590001435006E0036FC0E0016C250830B00109E
:1005A000C26E0400020E006E002EFED700D0176B44
:1005B00017510F0809E3C282C2B2FED7C3501527F4
:1005C000C4501623172BF4D7080E1525186F000EEC
:1005D0001621196F1931036E1831026E033202327F
:1005E00003320232033202320F0E031602C001F050
:1005F00003C002F000011200F2CF14F1F29EAA6AC9
:10060000A96AA69CA69EA680A850010114BFF28EDE
:10061000156F6C0EF66E000EF76E2F0E166F000142
:10062000E4DE15C116F11B0E0101176F000119DF81
:100630000D0E9EA8FED7AD6E0A0E9EA8FED7AD6E1B
:10064000A00EF66E000EF76EE5DE94968B969494EF
:100650008B8494988B88640E0101156F0001ADDEC8
:1006600094968B9694948B9494988B98C80EF66E6F
:10067000000EF76ECFDEF2CF14F1F29EAA6AA96ADD
:10068000A69CA69EA680A850010114BFF28E010868
:100690003AE0AA6AA96A010EA86EA69CA69EA68444
:1006A000F250006EF29E0F01550EA76EAA0EA76EB5
:1006B000A682A6B2FED7A6940050F212F2CF14F191
:1006C000F29EAA6AA96AA69CA69EA680A8500101CD
:1006D00014BFF28E156FD00EF66E000EF76E4D0E33
:1006E000166F000182DE15C116F11B0E0101176F96
:1006F0000001B7DE0D0E9EA8FED7AD6E0A0E9EA8B5
:10070000FED7AD6E01010001C0EF05F00101146BD1
:100710003C0E616EF19E010E156F00014EDE93845A
:1007200081B404D0010E010114270001938681B623
:1007300004D0020E010114270001938881B804D06F
:10074000040E010114270001938A81BA03D0080E18
:1007500001011427010114C101F00001C1EF05F0EE
:100760009EA8FED7AD6E1200929C899C929E898EA7
:100770000A0E0101156F000120DE0101145102086B
:1007800005E1020E0001ECDF04D00101010E0001C1
:10079000E7DF050EE5DF000EE3DF010EE1DF000E0F
:1007A000DFDF000EDDDF9C0EDBDF010114510208EC
:1007B00005E1390E0001D4DF04D001010A0E000169
:1007C000CFDF0A0E0101156F0001F7DD929C898CC5
:1007D000929E899E1200929C899C929E898E0A0EFE
:1007E0000101156F0001E9DD01011451020805E165
:1007F000020E0001B5DF04D00101010E0001B0DFDF
:10080000050EAEDF000EACDF010EAADFFF0EA8DF83
:10081000000EA6DFDD0EA4DF01011451020805E180
:10082000C90E00019DDF04D00101FA0E000198DF1E
:100830000A0E0101156F0001C0DD929C898C929E09
:10084000899E1200949A8B8A020E0101146F000196
:100850008BDF010E0101146F0001BDDF949A8B9AAA
:100860003A0EF66E010EF76ED5DDAAEF06F0949201
:100870008B82010E0101146F000176DF020E01016F
:10088000146F0001A8DF94928B92220EF66E010E77
:10089000F76EC0DDAEEF06F0F2CF14F1F29EAA6A59
:1008A000A96AA69CA69EA680A850010114BFF28E3C
:1008B000156F040EF66E000EF76E300E166F000107
:1008C00094DD15C116F11B0E0101176F0001C9DD82
:1008D0000D0E9EA8FED7AD6E0A0E9EA8FED7AD6E79
:1008E000F2CF14F1F29EAA6AA96AA69CA69EA680DF
:1008F000A850010114BFF28E000A01E131D03A0E76
:10090000F66E000EF76E000185DD94968B8694944A
:100910008B9494988B88640E0101156F00014DDD56
:1009200094968B9694948B9494988B98640EF66E10
:10093000000EF76E6FDDAA6AA96AA86AA69CA69E39
:10094000A684F250006EF29E0F01550EA76EAA0EFD
:10095000A76EA682A6B2FED7A6940050F21201019D
:100960000001B9EF06F0F86AD09EEA6AE96A500E13
:10097000D36E9B9C9B9E0A6AB896190EAF6EA60E0C
:10098000AC6E900EAB6E7096190E756EA60E726EF2
:10099000900E716EC150F00BC16E000E0F01386FDA
:1009A0003C6F396F3A6F3B6F776A786A796A046A8D
:1009B000056AD0500F0BD0A8000ED080D082D0880E
:1009C000D886D8880101006F0400000176D4949085
:1009D0008B80A1D4929C899C929E898E0A0E0101E3
:1009E000156F0001EADC520EF66E010EF76E140E62
:1009F0000101166F0001F9DC6C0EF66E010EF76E48
:100A000009DD0D0E9EA8FED7AD6E0A0E9EA8FED77C
:100A1000AD6E760EF66E010EF76E120E0101166FB8
:100A20000001E3DC00C116F11B0E0101176F00018C
:100A300018DD200E9EA8FED7AD6E01010051070AF9
:100A400000010DE00C0A11E0040A15E0030A19E0A8
:100A5000020A1DE00D0A21E0030A25E02AD08C0ECF
:100A6000F66E010EF76ED6DC29D0980EF66E010EEA
:100A7000F76ED0DC23D0A80EF66E010EF76ECADC3E
:100A80001DD0B60EF66E010EF76EC4DC17D0C60E82
:100A9000F66E010EF76EBEDC11D0D80EF66E010EAA
:100AA000F76EB8DC0BD0E80EF66E010EF76EB2DC16
:100AB00005D0FA0EF66E010EF76EACDC040EF66E83
:100AC000020EF76EA7DC080EF66E020EF76E1E0E13
:100AD0000101166F000189DC100EE96E33C015F1BB
:100AE00032C014F1FDDC0D0E9EA8FED7AD6E0A0ECD
:100AF0009EA8FED7AD6E2C0EF66E020EF76E1F0E80
:100B00000101166F000171DC100EE96E35C015F1A0
:100B100034C014F1E5DC0D0E9EA8FED7AD6E0A0EB2
:100B20009EA8FED7AD6E040E0101146F00012DDDED
:100B300002C011F101C010F1520EF66E020EF76EF6
:100B4000140E0101166F000150DC100EE96E11C188
:100B500015F110C114F1C4DC0D0E9EA8FED7AD6EC8
:100B60000A0E9EA8FED7AD6E33500101115DD8A0CC
:100B7000F7D004E11051325CD8B0F2D000013CD57E
:100B8000C5D501C001F1D89001010135036A120FEA
:100B9000E96E000E0320EA6EECCF03F0ED52EFCFCA
:100BA00012F103C013F16C0EF66E020EF76E140E06
:100BB000166F00011ADC01C116F11B0E0101176F3F
:100BC00000014FDC820EF66E020EF76E060E01017A
:100BD000166F00010ADC100EE96E13C115F112C187
:100BE00014F17EDC0D0E9EA8FED7AD6E0A0E9EA8F7
:100BF000FED7AD6E030E0101146F0001C6DC02C00A
:100C000003F101C002F1020E0101146F0001BDDC0D
:100C100002C005F101C004F1010E0101146F0001D1
:100C2000B4DC02C007F101C006F10101146B000140
:100C3000ACDC02C009F101C008F10A0E0101146F19
:100C40000001A3DC02C00BF101C00AF18E0EF66EAA
:100C5000020EF76E060E0101166F0001F5EC01F0B1
:100C6000100EE96E03C115F102C114F139DC970EC3
:100C7000F66E020EF76E050E0101166F0001F5EC1F
:100C800001F0100EE96E05C115F104C114F128DC64
:100C90009F0EF66E020EF76E050E0101166F000133
:100CA000F5EC01F0100EE96E07C115F106C114F163
:100CB00017DCA70EF66E020EF76E050E0101166F19
:100CC0000001F5EC01F0100EE96E09C115F108C143
:100CD00014F106DCAF0EF66E020EF76E050E010182
:100CE000166F0001F5EC01F0100EE96E0BC115F165
:100CF0000AC114F170EC02F00D0E9EA8FED7AD6E85
:100D00000A0E9EA8FED7AD6E01010351135D04E3E8
:100D10001FE11251025D1CE30551135D04E318E16C
:100D20001251045D15E30751135D04E311E1125103
:100D3000065D0EE30951135D04E30AE11251085DFB
:100D400007E30B51135D08E303E112510A5D04E26E
:100D5000000178D503D00101000189D50AD0010135
:100D60001151355C07E303E13450105D03E20001EB
:100D700093D501010A0E156F0001DDEC01F0929C84
:100D8000898C929E899E94908B90C2900300000063
:040D9000FF0003005D
:0200000400F00A
:08000000FF00FF00FF00FF00FC
:020000040030CA
:0E0000000028062B003F81000FC00FE00F40CC
:00000001FF
;PIC18F26K22
;CRC=DB8D  CREATED="13-Nov-15 09:49"
