:04000000DAEF08F03B
:08000800046ED8CF05F0E0CF33
:1000100006F00001E9CF0CF0EACF07F0E1CF08F0DD
:10002000E2CF09F0D9CF0AF0DACF0BF0F3CF12F01C
:10003000F4CF13F0FACF14F0F5CF15F0F6CF16F099
:10004000F7CF17F000C00EF001C00FF002C010F0A3
:1000500003C011F0F2AA30EF00F0F2B477EF01F034
:10006000A3AA36EF00F0A4BAADEF01F00EC000F085
:100070000FC001F010C002F011C003F00CC0E9FF86
:1000800007C0EAFF078E08C0E1FF09C0E2FF0AC00F
:10009000D9FF0BC0DAFF12C0F3FF13C0F4FF14C086
:1000A000FAFF15C0F5FF16C0F6FF17C0F7FF0450A2
:1000B00006C0E0FF05C0D8FF1000F76ACA0FF66E51
:1000C000000EF7220900F550120000C1814001C066
:1000D000804101C0804100C1814001C0804100C118
:1000E000814000C1814001C0804101C0804100C108
:1000F000814000C1814001C0804100C1814001C0F8
:10010000804101C0804100C1814001C0804100C1E7
:10011000814000C1814001C0804100C1814001C0D7
:10012000804101C0804100C1814000C1814001C0C7
:10013000804101C0804100C1814001C0804100C1B7
:10014000814000C1814001C0804101C0804100C1A7
:10015000814000C1814001C0804100C1814001C097
:10016000804101C0804100C1814000C1814001C087
:10017000804101C0804100C1814001C0804100C177
:10018000814000C1814001C0804100C1814001C067
:10019000804101C0804100C1814001C0804100C157
:1001A000814000C1814001C0804101C0804100C147
:1001B000814000C1814001C0804100C1814001C037
:1001C000804101C0804100C18140F76ADA0FF66EBC
:1001D000010EF7220900F550120000C0C101C3034F
:1001E00002C2C60607C705C5C404CC0C0DCD0FCF8F
:1001F000CE0E0ACACB0BC90908C8D81819D91BDBFF
:10020000DA1A1EDEDF1FDD1D1CDC14D4D515D7174E
:1002100016D6D21213D311D1D010F03031F133F3FE
:10022000F23236F6F737F53534F43CFCFD3DFF3F4E
:100230003EFEFA3A3BFB39F9F83828E8E929EB2B7E
:100240002AEAEE2E2FEF2DEDEC2CE42425E527E70E
:10025000E62622E2E323E12120E0A06061A163A37E
:10026000A26266A6A767A56564A46CACAD6DAF6F0E
:100270006EAEAA6A6BAB69A9A86878B8B979BB7B7E
:100280007ABABE7E7FBF7DBDBC7CB47475B577B7CE
:10029000B67672B2B373B17170B0509091519353FE
:1002A000529296565797559594549C5C5D9D5F9FCE
:1002B0009E5E5A9A9B5B99595898884849894B8BFE
:1002C0008A4A4E8E8F4F8D4D4C8C4484854587478E
:1002D00046868242438341818040F29A02011E5346
:1002E00004E0D76AD66AF294F28A00011200F9514A
:1002F00002080AE1FA5308E1FB5306E1F8B104D021
:10030000020EFD5FF88101D0F891FB69FA69F96B83
:1003100002011E6B0001E1DFF29436EF00F0A4AAA7
:10032000FED771CF20F074CF01F020A202D07198D7
:1003300071881200FB5102011E191F6F036A1F51C1
:100340000001BBDE016EFA510118FB6F036A020166
:100350001F5100013ADFFA6F1200E1DF01C01DF208
:10036000F8B126D0F95308E1FB69FA691DC2FCF027
:10037000F92BFD6BFF6B14D0F92D04D01DC2FEF0DC
:10038000F92B0ED0F95102080BE1FD3D02D0FE0E13
:10039000FD6FFDC0E9FF010EEA6E1DC2EFFFFD2BF0
:1003A0001DC21EF2C7DF010E02011E6F000195DFA4
:1003B000A49A36EF00F0020EEA6E010EE96EEF50DD
:1003C00010E0030E016EBF0E006E0400002EFDD77C
:1003D000012EF9D7E30E006E002EFED70400EF2E9B
:1003E000F0D7FCEF01F00201006B3C0E616EF19E54
:1003F000010E016F0001DFD781B404D0010E0201AC
:100400000027000181B604D0020E0201002700017E
:1004100081B804D0040E02010027000181BA04D083
:10042000080E020100270001616AF18E020100C27C
:1004300001F000010CEF09F0500ED36E9B9C9B9EC7
:10044000C050C00B3D09C06EC08EC280C150F00BC1
:10045000C16E2F0E0F01386F000E3C6F020E396F08
:10046000000E3A6F3B6F416B426BC66A2F0E926E65
:10047000BE0E936E800E946E0001F46BF56BF66BFE
:10048000F76BEA6BE96BEC6BEB6BEE6BED6BF06BA8
:10049000EF6BE86BF16B1200C050C00B3D09C06EF2
:1004A000C08EC280C9DF12EF09F0C050C00B3D09F9
:1004B000C06EC08EC280C0DF15EF09F00201096B6B
:1004C00008C203F00751D8B4080707070A6F03C032
:1004D0000BF20A5302E10B5332E006C203F005515E
:1004E000E96E03C0EAFF0451036E0351032BD8B435
:1004F000042B0C6F03C00DF2F2CF0EF2F29E0DC270
:10050000AAFF0CC2A9FFA69CA69EA680A8500EBF5B
:10051000F28EEF6E06C203F00551E96E03C0EAFFEA
:10052000EFCF0AF209C21BF20AC21CF21B511C19BE
:10053000016E01C009F2052BD8B4062BC1D709C240
:1005400001F0000141EF03F00201196B18C203F042
:100550001751D8B4180717071A6F03C01BF21A53A4
:1005600002E11B533EE016C203F01551E96E03C0D1
:10057000EAFFEFCF1AF219C21BF21AC21CF21B518A
:100580001C19016E01C019F21451036E1351132B83
:10059000D8B4142B1A6F03C01BF21651036E1551F9
:1005A000152BD8B4162BE96E03C0EAFFEFCF1CF26F
:1005B0001BC2AAFF1AC2A9FF1CC2A8FFA69CA69E26
:1005C000A684F250006EF29E0F01550EA76EAA0E81
:1005D000A76EA682A6B2FED7A6940050F212020120
:1005E000B5D719C201F0000106EF03F00201126B4A
:1005F000210E116F146B020E136F12C216F211C28C
:1006000015F2186B070E176F00019ED701C010F28C
:10061000AA6AA96A10C2A8FFA69CA69EA684F25048
:10062000006EF29E0F01550EA76EAA0EA76EA6824F
:10063000A6B2FED7A6940050F21200011200960E48
:10064000F46FF56FF66FF76F290E216E410E236E72
:10065000260E256E940E246E276A140E266EC6DFB3
:1006600012000201026B210E016F046B020E036F78
:1006700002C206F201C205F2086B070E076F000105
:100680001DD701C000F2F2CF01F2F29EAA6AA96A58
:10069000A69CA69EA680A850020101BFF28E005D16
:1006A00003E00001CCDF0201000117EF09F0A4AA6A
:1006B00002D035DEFCD79D8A1200F9DFC60ED56E5A
:1006C000C00EF21223EF09F0E82BE8510F0801E207
:1006D000E86B0201006B0051050826E30035006E4F
:1006E0000036FC0E0016C250830B0010C26E005183
:1006F000200DF350026B016FD8900001E835036ABA
:1007000002010125016E025103220150280FE96EFA
:10071000000E0320EA6EC282C2B2FED7C3CFEFFF43
:10072000C4CFECFF002BD7D700012BEF09F0F8B1B5
:1007300004D0000E016E0AD006D0FEAF04D000C176
:10074000FFF0010EFD6FF891010E016ED1EF07F081
:10075000020108511F080CE109514E0809E10A5134
:10076000200806E10B514E0803E1010E016E2ED068
:10077000095102080FE2FF0A03E10851E7080AE203
:100780000B51030807E303E10A51F40803E3010EE8
:10079000016E1CD0095106080FE2FF0A03E108515F
:1007A000CF080AE20B51090807E303E10A51D10817
:1007B00003E3010E016E0AD00B5306E10A5134081F
:1007C00003E3010E016E02D0000E016E000109EF7D
:1007D00008F0A4A8FED7736EF2EF03F002011251E5
:1007E0000001F7D7196AF2BE198EF29E12C21EF2EC
:1007F000A1DD19BEF28E0400080E006E002EFED799
:1008000000001200FB69FA69F8919D9A04001E0E1F
:10081000006E002EFED7000010C212F2DFDF11C200
:1008200012F2DCDF1200ACA2FED722EF04F0FBC014
:1008300011F2FAC010F211C212F2D0DF10C212F29D
:10084000CDDFF1D704001E0E006E002EFED7000093
:100850002EDFFB69FA6912000201075180090A6F55
:1008600008C20BF206C210F2116F0001CBDF09C201
:1008700012F2B4DFDCDF120002011451200DF3503C
:10088000036A280F016E000E032201C018F203C094
:1008900019F2166B156B176B17510F0811E3D890EF
:1008A0001735036A1825E96E19510320EA6EECCF5B
:1008B00003F0ED52EF50152703501623172BECD7FA
:1008C000080E15251A6F000E16211B6F1B31036EC3
:1008D0001A31026E03320232033202320332023222
:1008E0000F0E031602C001F003C002F00001120057
:1008F000EA6BE96BEC6BEB6BEE6BED6B52EF06F0BA
:1009000002011351060824E2FF0A03E11251CF0845
:100910001FE2135109081CE303E11251CF0818E349
:10092000D00E125D146F070E1359156FF2CF16F229
:10093000F29E15C2AAFF14C2A9FFA69CA69EA6807D
:10094000A85016BFF28E036A016E0350026EEDD1FD
:100950001251006E1351036E035006E1120E005C3B
:100960000001D8B4CAD00201035006E1130E005CA6
:100970000001D8B4D4D00201035006E1150E005C8A
:100980000001D8B4D7D00201035006E1160E005C76
:100990000001D8B4E1D00201035006E1180E005C5A
:1009A0000001D8B4E5D00201035006E1190E005C45
:1009B0000001D8B4EFD00201035006E11B0E005C29
:1009C0000001D8B4F3D00201035006E11C0E005C14
:1009D0000001D8B4FDD00201035006E11E0E005CF8
:1009E0000001D8B401D10201035006E11F0E005CE2
:1009F0000001D8B40BD10201035006E1210E005CC6
:100A00000001D8B40FD10201035006E1220E005CB0
:100A10000001D8B419D10201035006E12A0E005C8E
:100A20000001D8B41DD10201035006E1300E005C74
:100A30000001D8B421D10201035006E1310E005C5F
:100A40000001D8B420D10201035006E1320E005C4F
:100A50000001D8B41FD10201035006E1330E005C3F
:100A60000001D8B41ED10201030E035C06E1E80EBA
:100A7000005C0001D8B41CD10201030E035C06E146
:100A8000E90E005C0001D8B41BD10201030E035C27
:100A900006E1EA0E005C0001D8B419D10201030E90
:100AA000035C06E1EB0E005C0001D8B417D1020133
:100AB000030E035C06E1EC0E005C0001D8B415D116
:100AC0000201030E035C06E1ED0E005C0001D8B4E8
:100AD00013D10201030E035C06E1EE0E005C00017F
:100AE000D8B411D10201030E035C06E1EF0E005CE5
:100AF0000001D8B410D1020114D1D890E835036AAE
:100B0000280FE96E000E0320EA6EECCF03F0ED52E1
:100B1000EFCF01F003C002F0020107D10001020192
:100B2000146B0001A9DE0150016E0250026E020139
:100B3000FCD00001D890E835036A480FE96E000E3A
:100B40000320EA6EECCF03F0ED52EF50016E03503C
:100B5000026E0201EAD00001010E0201146F0001D1
:100B60008BDE0150016E0250026E0201DED00001E8
:100B7000D890E835036A680FE96E000E0320EA6E2C
:100B8000ECCF03F0ED52EF50016E0350026E020104
:100B9000CCD00001020E0201146F00016DDE015085
:100BA000016E0250026E0201C0D00001D890E835FB
:100BB000036A880FE96E000E0320EA6EECCF03F0A3
:100BC000ED52EF50016E0350026E0201AED00001F3
:100BD000030E0201146F00014FDE0150016E02503E
:100BE000026E0201A2D00001D890E835036AA80F76
:100BF000E96E000E0320EA6EECCF03F0ED52EF50E9
:100C0000016E0350026E020190D00001040E020139
:100C1000146F000131DE0150016E0250026E0201BC
:100C200084D00001D890E835036AC80FE96E000E41
:100C30000320EA6EECCF03F0ED52EF50016E03504B
:100C4000026E020172D00001050E0201146F000154
:100C500013DE0150016E0250026E020166D00001E7
:100C6000F051036EEF51EF2BD8B4F02B016E03500F
:100C7000026E02015AD00001E951016EEA51026E82
:100C8000020153D00001EB51016EEC51026E0201E2
:100C90004CD00001ED51016EEE51026E020145D0C3
:100CA000000126D6000E016E026E02013ED0000148
:100CB000036A2350016E0350026E020136D0000118
:100CC0002450016E2550026E02012FD00001500EFB
:100CD000016E000E026E020128D00001570E016E57
:100CE000000E026E020121D00001580E016E000EAE
:100CF000026E02011AD00001010E016E000E026E9A
:100D0000020113D00001036A2150016E0350026EEC
:100D100002010BD000012650016E2750026E020125
:100D200004D0FF0E016E026E00D00001BCEF06F091
:100D300007C210F206C211F265DDD89002010A3531
:100D4000106F0B35116F10C212F2000147DD020166
:100D50000D6B0C6B0D510B5D22E303E10A510C5D31
:100D60001EE20C510825106F0D510921116F136FF0
:100D700010C212F20001C4D502C00FF201C00EF27F
:100D80000FC210F20FC212F229DD0EC210F20EC213
:100D900012F224DD02010C2BD8B40D2BDBD700019D
:100DA00046DD28EF08F002010D51060832E2FF0A85
:100DB00003E10C51CF082DE20D5109082AE303E1AC
:100DC0000C51CF0826E30F51000808E2FF0A03E1A7
:100DD0000E51000803E2030E016EA3D00DC2AAFF5C
:100DE0000CC2A9FF0EC2A8FFA69CA69EA684F25024
:100DF000006EF29E0F01550EA76EAA0EA76EA68278
:100E0000A6B2FED7A6940050F212000E016E0201A7
:100E100088D00001F1531BE002010C51E80809E100
:100E20000D51030806E10EC223F0000E016E79D0C9
:100E30000DD00C51E9080AE10D51030807E10FC27A
:100E400025F00EC224F0000E016E6BD000010201ED
:100E50000C51006E0D51036E030E035C05E1EE0EA6
:100E6000005C00011AE00201070E035C05E1CE0EF2
:100E7000005C000122E00201070E035C05E1CF0ED9
:100E8000005C000127E002014E0E035C05E11F0E2D
:100E9000005C00012CE002013FD002010E3D02D0B7
:100EA0000F5308E00F5303E10E517F0803E2030ED6
:100EB000016E37D00EC221F032D002010E2D02D0C9
:100EC0000F5303E0030E016E2CD000011FEC03F062
:100ED000020125D002010E2D02D00F5303E0030EB4
:100EE000016E1FD00001F6EC02F0020118D00201E1
:100EF0000E510A0803E10F51070806E00001F16BEB
:100F0000030E016E02010DD0010E0001F16FC80E3B
:100F1000F66FF76F020103D0020E016E02D0000ED1
:100F2000016E0001120008C210F2060E0201116FDC
:100F3000000168DC0AC20DF20AC212F24FDC09C2DB
:100F40000DF209C212F24ADC0CC20DF20CC212F20E
:100F500045DC0BC20DF20BC212F240DC68DC60EF24
:100F600008F006C210F2100E0201116F00014ADCF7
:100F700008C20BF208C212F231DC07C20BF207C240
:100F800012F22CDC0AC20BF20AC212F227DC09C2EE
:100F90000BF209C212F222DC4ADCBAEF08F097EF3A
:100FA00003F00152D8B404D1213C01D004D0215027
:100FB000FC5DD8A4F2D0E93D03D0EA3D01D003D0D6
:100FC000E92BD8B4EA2B140EF66FFE51030A08E0A1
:100FD000070A06E0020A3DE0160AD8B472D0CCD067
:100FE00000C101F201C100F202C103F203C102F229
:100FF000020102510025066F03510121076F01C252
:1010000009F200C208F20B6F06C20AF20001A8EF53
:1010100003F0015210E1FCC006F20201086BFEC0B1
:1010200007F2020E096F000117DCEE6B020EED6F86
:10103000640EF76F0DD0FEC006F2FCC007F201C2CD
:1010400009F200C208F203C20BF202C20AF270D621
:10105000A3D000C101F201C100F202C107F203C135
:1010600006F201C20DF200C20CF202C10FF203C17E
:101070000EF299DE01C004F20201045311E0FCC03B
:1010800006F2086BFEC007F204C209F200012CEC64
:1010900004F0EE6B04C2EDF0640EF76F11D00201A4
:1010A00002C107F203C106F2FCC008F201C20AF253
:1010B00000C209F202C10CF203C10BF2000133D7E6
:1010C0006BD000C101F201C100F202C103F203C101
:1010D00002F20201056B035303E10251055D3CE29C
:1010E00005510025066F000E0121076FD8900535C8
:1010F000050FE96E010EEA6EEFCF08F2D8900535C4
:10110000060FE96E010EEA6EEFCF09F208C20BF28C
:1011100009C20AF207C20DF206C20CF208C20FF2AF
:1011200009C20EF200013FDE01C004F202010453C5
:1011300011E0FCC006F2086BFEC007F204C209F21F
:1011400000012CEC04F0EE6B04C2EDF0640EF76FBE
:10115000020102D0052BBFD704530CE1FCC006F2FC
:1011600001C208F200C207F203C20AF202C209F287
:101170000001F7D6000110D0FCC006F20201086B96
:10118000FEC007F2010E096F00012CEC04F0EE6BBB
:10119000010EED6F640EF76F0BD0EB3D03D0EC3D0D
:1011A00001D003D0EB2BD8B4EC2B140EF66FF76FF5
:1011B00031EF09F0F86AD09E078EEA6AE96A206A80
:1011C000B8964D0EAF6EA60EAC6E900EAB6E7096CE
:1011D0004D0E756EA60E726E900E716EF891F96BD3
:1011E000C150F00BC16E000E0F01386F3C6F396FAC
:1011F0003A6F3B6F776A786A796A1A6A1B6AD050CD
:101200000F0BD0A8000ED080D082D088D886D88886
:101210000001F26FF3EF01F001C0F3F0F35303E1CB
:101220004CEF02F002D055EF02F031EF03F0213C19
:1012300001D005D021507F0802E21FEC03F0AB8EF5
:10124000AB885DEF03F00101FF6BFF511D0806E362
:10125000000164EF03F00101FF2BF7D70400000148
:081260009ED60101FBD703003B
:020000040030CA
:0E00000000231E3F003F81000FC00FE00F40A5
:00000001FF
;PIC18F26K22
;CRC=10E6  CREATED="26-Oct-15 10:00"
